{
  "contractName": "BaseScheduler",
  "abi": [
    {
      "constant": true,
      "inputs": [],
      "name": "temporalUnit",
      "outputs": [
        {
          "name": "",
          "type": "uint8"
        }
      ],
      "payable": false,
      "stateMutability": "view",
      "type": "function"
    },
    {
      "constant": true,
      "inputs": [],
      "name": "feeRecipient",
      "outputs": [
        {
          "name": "",
          "type": "address"
        }
      ],
      "payable": false,
      "stateMutability": "view",
      "type": "function"
    },
    {
      "constant": true,
      "inputs": [],
      "name": "factoryAddress",
      "outputs": [
        {
          "name": "",
          "type": "address"
        }
      ],
      "payable": false,
      "stateMutability": "view",
      "type": "function"
    },
    {
      "payable": true,
      "stateMutability": "payable",
      "type": "fallback"
    },
    {
      "anonymous": false,
      "inputs": [
        {
          "indexed": false,
          "name": "request",
          "type": "address"
        }
      ],
      "name": "NewRequest",
      "type": "event"
    },
    {
      "constant": false,
      "inputs": [
        {
          "name": "_toAddress",
          "type": "address"
        },
        {
          "name": "_callData",
          "type": "bytes"
        },
        {
          "name": "_uintArgs",
          "type": "uint256[8]"
        }
      ],
      "name": "schedule",
      "outputs": [
        {
          "name": "newRequest",
          "type": "address"
        }
      ],
      "payable": true,
      "stateMutability": "payable",
      "type": "function"
    }
  ],
  "bytecode": "0x6060604052341561000f57600080fd5b610b908061001e6000396000f300606060405260043610610062576000357c0100000000000000000000000000000000000000000000000000000000900463ffffffff1680630801b654146100645780633c8a072e146101425780634690484014610179578063966dae0e146101ce575b005b610100600480803573ffffffffffffffffffffffffffffffffffffffff1690602001909190803590602001908201803590602001908080601f01602080910402602001604051908101604052809392919081815260200183838082843782019150505050505091908061010001906008806020026040519081016040528092919082600860200280828437820191505050505091905050610223565b604051808273ffffffffffffffffffffffffffffffffffffffff1673ffffffffffffffffffffffffffffffffffffffff16815260200191505060405180910390f35b341561014d57600080fd5b610155610b06565b6040518082600281111561016557fe5b60ff16815260200191505060405180910390f35b341561018457600080fd5b61018c610b19565b604051808273ffffffffffffffffffffffffffffffffffffffff1673ffffffffffffffffffffffffffffffffffffffff16815260200191505060405180910390f35b34156101d957600080fd5b6101e1610b3f565b604051808273ffffffffffffffffffffffffffffffffffffffff1673ffffffffffffffffffffffffffffffffffffffff16815260200191505060405180910390f35b60008060008060009054906101000a900473ffffffffffffffffffffffffffffffffffffffff16915073__PaymentLib____________________________635ee345e485600660088110151561027557fe5b602002015186600560088110151561028957fe5b602002015187600060088110151561029d57fe5b60200201518860016008811015156102b157fe5b60200201518960046008811015156102c557fe5b602002015173__RequestLib____________________________6345104b166040518163ffffffff167c010000000000000000000000000000000000000000000000000000000002815260040160206040518083038186803b151561032957600080fd5b5af4151561033657600080fd5b505050604051805190506040518763ffffffff167c010000000000000000000000000000000000000000000000000000000002815260040180878152602001868152602001858152602001848152602001838152602001828152602001965050505050505060206040518083038186803b15156103b257600080fd5b5af415156103bf57600080fd5b5050506040518051905090508034101515156103da57600080fd5b600160028111156103e757fe5b600060149054906101000a900460ff16600281111561040257fe5b1415610722578173ffffffffffffffffffffffffffffffffffffffff1663d7ceab4c346060604051908101604052803373ffffffffffffffffffffffffffffffffffffffff1673ffffffffffffffffffffffffffffffffffffffff168152602001600160009054906101000a900473ffffffffffffffffffffffffffffffffffffffff1673ffffffffffffffffffffffffffffffffffffffff1673ffffffffffffffffffffffffffffffffffffffff1681526020018a73ffffffffffffffffffffffffffffffffffffffff1673ffffffffffffffffffffffffffffffffffffffff168152506101806040519081016040528089600560088110151561050357fe5b6020020151815260200189600660088110151561051c57fe5b6020020151815260200160ff8152602001600a815260200160108152602001600060149054906101000a900460ff16600281111561055657fe5b815260200189600260088110151561056a57fe5b6020020151815260200189600360088110151561058357fe5b6020020151815260200189600060088110151561059c57fe5b602002015181526020018960016008811015156105b557fe5b602002015181526020018960046008811015156105ce57fe5b602002015181526020018960076008811015156105e757fe5b6020020151815250896040518563ffffffff167c01000000000000000000000000000000000000000000000000000000000281526004018084600360200280838360005b8381101561064657808201518184015260208101905061062b565b5050505090500183600c60200280838360005b83811015610674578082015181840152602081019050610659565b5050505090500180602001828103825283818151815260200191508051906020019080838360005b838110156106b757808201518184015260208101905061069c565b50505050905090810190601f1680156106e45780820380516001836020036101000a031916815260200191505b509450505050506020604051808303818588803b151561070357600080fd5b5af1151561071057600080fd5b50505050604051805190509250610a71565b60028081111561072e57fe5b600060149054906101000a900460ff16600281111561074957fe5b1415610a6b578173ffffffffffffffffffffffffffffffffffffffff1663d7ceab4c346060604051908101604052803373ffffffffffffffffffffffffffffffffffffffff1673ffffffffffffffffffffffffffffffffffffffff168152602001600160009054906101000a900473ffffffffffffffffffffffffffffffffffffffff1673ffffffffffffffffffffffffffffffffffffffff1673ffffffffffffffffffffffffffffffffffffffff1681526020018a73ffffffffffffffffffffffffffffffffffffffff1673ffffffffffffffffffffffffffffffffffffffff168152506101806040519081016040528089600560088110151561084a57fe5b6020020151815260200189600660088110151561086357fe5b60200201518152602001610e10815260200160b4815260200161012c8152602001600060149054906101000a900460ff16600281111561089f57fe5b81526020018960026008811015156108b357fe5b602002015181526020018960036008811015156108cc57fe5b602002015181526020018960006008811015156108e557fe5b602002015181526020018960016008811015156108fe57fe5b6020020151815260200189600460088110151561091757fe5b6020020151815260200189600760088110151561093057fe5b6020020151815250896040518563ffffffff167c01000000000000000000000000000000000000000000000000000000000281526004018084600360200280838360005b8381101561098f578082015181840152602081019050610974565b5050505090500183600c60200280838360005b838110156109bd5780820151818401526020810190506109a2565b5050505090500180602001828103825283818151815260200191508051906020019080838360005b83811015610a005780820151818401526020810190506109e5565b50505050905090810190601f168015610a2d5780820380516001836020036101000a031916815260200191505b509450505050506020604051808303818588803b1515610a4c57600080fd5b5af11515610a5957600080fd5b50505050604051805190509250610a70565b600080fd5b5b60008373ffffffffffffffffffffffffffffffffffffffff1614151515610a9757600080fd5b7f2749295aa7ffdbd4d16719dc03d592cd081eebd9bb790ceedce201a40675fc0383604051808273ffffffffffffffffffffffffffffffffffffffff1673ffffffffffffffffffffffffffffffffffffffff16815260200191505060405180910390a182925050509392505050565b600060149054906101000a900460ff1681565b600160009054906101000a900473ffffffffffffffffffffffffffffffffffffffff1681565b6000809054906101000a900473ffffffffffffffffffffffffffffffffffffffff16815600a165627a7a723058204045aab9037cda67598a8aa1fac3ebe6dc4ed61f63f33ae0879aa7c7c769c5c40029",
  "source": "pragma solidity ^0.4.21;\n\nimport \"contracts/Interface/RequestFactoryInterface.sol\";\nimport \"contracts/Interface/SchedulerInterface.sol\";\n\nimport \"contracts/Library/PaymentLib.sol\";\nimport \"contracts/Library/RequestLib.sol\";\nimport \"contracts/Library/RequestScheduleLib.sol\";\n\n/**\n * @title BaseScheduler\n * @dev The foundational contract which provides the API for scheduling future transactions on the Alarm Client.\n */\ncontract BaseScheduler is SchedulerInterface {\n    // The RequestFactory which produces requests for this scheduler.\n    address public factoryAddress;\n\n    // The TemporalUnit (Block or Timestamp) for this scheduler.\n    RequestScheduleLib.TemporalUnit public temporalUnit;\n\n    // The address which will be sent the fee payments.\n    address public feeRecipient;\n\n    /*\n     * @dev Fallback function to be able to receive ether. This can occur\n     *  legitimately when scheduling fails due to a validation error.\n     */\n    function() public payable {}\n\n    /// Event that bubbles up the address of new requests made with this scheduler.\n    event NewRequest(address request);\n\n    /**\n     * @dev Schedules a new TransactionRequest using the 'full' parameters.\n     * @param _toAddress The address destination of the transaction.\n     * @param _callData The bytecode that will be included with the transaction.\n     * @param _uintArgs [0] The callGas of the transaction.\n     * @param _uintArgs [1] The value of ether to be sent with the transaction.\n     * @param _uintArgs [2] The size of the execution window of the transaction.\n     * @param _uintArgs [3] The (block or timestamp) of when the execution window starts.\n     * @param _uintArgs [4] The gasPrice which will be used to execute this transaction.\n     * @param _uintArgs [5] The fee attached to this transaction.\n     * @param _uintArgs [6] The bounty attached to this transaction.\n     * @param _uintArgs [7] The deposit required to claim this transaction.\n     * @return The address of the new TransactionRequest.   \n     */ \n    function schedule (\n        address   _toAddress,\n        bytes     _callData,\n        uint[8]   _uintArgs\n    )\n        public payable returns (address newRequest)\n    {\n        RequestFactoryInterface factory = RequestFactoryInterface(factoryAddress);\n\n        uint endowment = PaymentLib.computeEndowment(\n            _uintArgs[6], //bounty\n            _uintArgs[5], //fee\n            _uintArgs[0], //callGas\n            _uintArgs[1], //callValue\n            _uintArgs[4], //gasPrice\n            RequestLib.EXECUTION_GAS_OVERHEAD()\n        );\n\n        require(msg.value >= endowment);\n\n        if (temporalUnit == RequestScheduleLib.TemporalUnit.Blocks) {\n            newRequest = factory.createValidatedRequest.value(msg.value)(\n                [\n                    msg.sender,                 // meta.owner\n                    feeRecipient,               // paymentData.feeRecipient\n                    _toAddress                  // txnData.toAddress\n                ],\n                [\n                    _uintArgs[5],               // paymentData.fee\n                    _uintArgs[6],               // paymentData.bounty\n                    255,                        // scheduler.claimWindowSize\n                    10,                         // scheduler.freezePeriod\n                    16,                         // scheduler.reservedWindowSize\n                    uint(temporalUnit),         // scheduler.temporalUnit (1: block, 2: timestamp)\n                    _uintArgs[2],               // scheduler.windowSize\n                    _uintArgs[3],               // scheduler.windowStart\n                    _uintArgs[0],               // txnData.callGas\n                    _uintArgs[1],               // txnData.callValue\n                    _uintArgs[4],               // txnData.gasPrice\n                    _uintArgs[7]                // claimData.requiredDeposit\n                ],\n                _callData\n            );\n        } else if (temporalUnit == RequestScheduleLib.TemporalUnit.Timestamp) {\n            newRequest = factory.createValidatedRequest.value(msg.value)(\n                [\n                    msg.sender,                 // meta.owner\n                    feeRecipient,               // paymentData.feeRecipient\n                    _toAddress                  // txnData.toAddress\n                ],\n                [\n                    _uintArgs[5],               // paymentData.fee\n                    _uintArgs[6],               // paymentData.bounty\n                    60 minutes,                 // scheduler.claimWindowSize\n                    3 minutes,                  // scheduler.freezePeriod\n                    5 minutes,                  // scheduler.reservedWindowSize\n                    uint(temporalUnit),         // scheduler.temporalUnit (1: block, 2: timestamp)\n                    _uintArgs[2],               // scheduler.windowSize\n                    _uintArgs[3],               // scheduler.windowStart\n                    _uintArgs[0],               // txnData.callGas\n                    _uintArgs[1],               // txnData.callValue\n                    _uintArgs[4],               // txnData.gasPrice\n                    _uintArgs[7]                // claimData.requiredDeposit\n                ],\n                _callData\n            );\n        } else {\n            // unsupported temporal unit\n            revert();\n        }\n\n        require(newRequest != 0x0);\n        emit NewRequest(newRequest);\n        return newRequest;\n    }\n}\n",
  "sourcePath": "contracts/Scheduler/BaseScheduler.sol",
  "compiler": {
    "name": "solc",
    "version": "0.4.21+commit.dfe3193c.Emscripten.clang"
  },
  "schemaVersion": "2.0.0",
  "updatedAt": "2018-04-12T07:44:20.677Z"
}