{
  "contractName": "BaseScheduler",
  "abi": [
    {
      "constant": true,
      "inputs": [],
      "name": "temporalUnit",
      "outputs": [
        {
          "name": "",
          "type": "uint8"
        }
      ],
      "payable": false,
      "stateMutability": "view",
      "type": "function"
    },
    {
      "constant": true,
      "inputs": [],
      "name": "feeRecipient",
      "outputs": [
        {
          "name": "",
          "type": "address"
        }
      ],
      "payable": false,
      "stateMutability": "view",
      "type": "function"
    },
    {
      "constant": true,
      "inputs": [],
      "name": "factoryAddress",
      "outputs": [
        {
          "name": "",
          "type": "address"
        }
      ],
      "payable": false,
      "stateMutability": "view",
      "type": "function"
    },
    {
      "constant": true,
      "inputs": [],
      "name": "futureTransaction",
      "outputs": [
        {
          "name": "toAddress",
          "type": "address"
        },
        {
          "name": "callData",
          "type": "bytes"
        },
        {
          "name": "callGas",
          "type": "uint256"
        },
        {
          "name": "callValue",
          "type": "uint256"
        },
        {
          "name": "windowSize",
          "type": "uint256"
        },
        {
          "name": "windowStart",
          "type": "uint256"
        },
        {
          "name": "gasPrice",
          "type": "uint256"
        },
        {
          "name": "fee",
          "type": "uint256"
        },
        {
          "name": "bounty",
          "type": "uint256"
        },
        {
          "name": "requiredDeposit",
          "type": "uint256"
        },
        {
          "name": "reservedWindowSize",
          "type": "uint256"
        },
        {
          "name": "freezePeriod",
          "type": "uint256"
        },
        {
          "name": "claimWindowSize",
          "type": "uint256"
        },
        {
          "name": "temporalUnit",
          "type": "uint8"
        }
      ],
      "payable": false,
      "stateMutability": "view",
      "type": "function"
    },
    {
      "payable": true,
      "stateMutability": "payable",
      "type": "fallback"
    },
    {
      "anonymous": false,
      "inputs": [
        {
          "indexed": false,
          "name": "request",
          "type": "address"
        }
      ],
      "name": "NewRequest",
      "type": "event"
    },
    {
      "constant": false,
      "inputs": [
        {
          "name": "_toAddress",
          "type": "address"
        },
        {
          "name": "_callData",
          "type": "bytes"
        },
        {
          "name": "_uintArgs",
          "type": "uint256[8]"
        }
      ],
      "name": "schedule",
      "outputs": [
        {
          "name": "newRequest",
          "type": "address"
        }
      ],
      "payable": true,
      "stateMutability": "payable",
      "type": "function"
    }
  ],
  "bytecode": "0x6060604052341561000f57600080fd5b610e278061001e6000396000f30060606040526004361061006d576000357c0100000000000000000000000000000000000000000000000000000000900463ffffffff1680630801b6541461006f5780633c8a072e1461014d5780634690484014610184578063966dae0e146101d9578063e666bbcb1461022e575b005b61010b600480803573ffffffffffffffffffffffffffffffffffffffff1690602001909190803590602001908201803590602001908080601f0160208091040260200160405190810160405280939291908181526020018383808284378201915050505050509190806101000190600880602002604051908101604052809291908260086020028082843782019150505050509190505061036e565b604051808273ffffffffffffffffffffffffffffffffffffffff1673ffffffffffffffffffffffffffffffffffffffff16815260200191505060405180910390f35b341561015857600080fd5b610160610767565b6040518082600281111561017057fe5b60ff16815260200191505060405180910390f35b341561018f57600080fd5b61019761077a565b604051808273ffffffffffffffffffffffffffffffffffffffff1673ffffffffffffffffffffffffffffffffffffffff16815260200191505060405180910390f35b34156101e457600080fd5b6101ec6107a0565b604051808273ffffffffffffffffffffffffffffffffffffffff1673ffffffffffffffffffffffffffffffffffffffff16815260200191505060405180910390f35b341561023957600080fd5b6102416107c5565b604051808f73ffffffffffffffffffffffffffffffffffffffff1673ffffffffffffffffffffffffffffffffffffffff168152602001806020018e81526020018d81526020018c81526020018b81526020018a81526020018981526020018881526020018781526020018681526020018581526020018481526020018360028111156102c957fe5b60ff16815260200182810382528f8181546001816001161561010002031660029004815260200191508054600181600116156101000203166002900480156103525780601f1061032757610100808354040283529160200191610352565b820191906000526020600020905b81548152906001019060200180831161033557829003601f168201915b50509f5050505050505050505050505050505060405180910390f35b60006001600281111561037d57fe5b600060149054906101000a900460ff16600281111561039857fe5b141561043557600173__SchedulerLib__________________________6314c84e5d90916000604051602001526040518263ffffffff167c01000000000000000000000000000000000000000000000000000000000281526004018082815260200191505060206040518083038186803b151561041457600080fd5b6102c65a03f4151561042557600080fd5b50505060405180519050506104ff565b60028081111561044157fe5b600060149054906101000a900460ff16600281111561045c57fe5b14156104f957600173__SchedulerLib__________________________63e9d2437790916000604051602001526040518263ffffffff167c01000000000000000000000000000000000000000000000000000000000281526004018082815260200191505060206040518083038186803b15156104d857600080fd5b6102c65a03f415156104e957600080fd5b50505060405180519050506104fe565b600080fd5b5b83600160000160006101000a81548173ffffffffffffffffffffffffffffffffffffffff021916908373ffffffffffffffffffffffffffffffffffffffff1602179055508260018001908051906020019061055b929190610d56565b5081600060088110151561056b57fe5b602002015160016002018190555081600160088110151561058857fe5b60200201516001600301819055508160026008811015156105a557fe5b60200201516001600401819055508160036008811015156105c257fe5b60200201516001600501819055508160046008811015156105df57fe5b60200201516001600601819055508160056008811015156105fc57fe5b602002015160016007018190555081600660088110151561061957fe5b602002015160016008018190555081600760088110151561063657fe5b6020020151600160090181905550600060149054906101000a900460ff166001600d0160006101000a81548160ff0219169083600281111561067457fe5b02179055506106d26000809054906101000a900473ffffffffffffffffffffffffffffffffffffffff16600f60009054906101000a900473ffffffffffffffffffffffffffffffffffffffff16600161084b9092919063ffffffff16565b905060008173ffffffffffffffffffffffffffffffffffffffff16141515156106fa57600080fd5b7f2749295aa7ffdbd4d16719dc03d592cd081eebd9bb790ceedce201a40675fc0381604051808273ffffffffffffffffffffffffffffffffffffffff1673ffffffffffffffffffffffffffffffffffffffff16815260200191505060405180910390a18090509392505050565b600060149054906101000a900460ff1681565b600f60009054906101000a900473ffffffffffffffffffffffffffffffffffffffff1681565b6000809054906101000a900473ffffffffffffffffffffffffffffffffffffffff1681565b60018060000160009054906101000a900473ffffffffffffffffffffffffffffffffffffffff1690806001019080600201549080600301549080600401549080600501549080600601549080600701549080600801549080600901549080600a01549080600b01549080600c01549080600d0160009054906101000a900460ff1690508e565b600080600084915073__MathLib_______________________________637ae2b5c773__PaymentLib____________________________635ee345e489600801548a600701548b600201548c600301548d6006015473__RequestLib____________________________6345104b166000604051602001526040518163ffffffff167c010000000000000000000000000000000000000000000000000000000002815260040160206040518083038186803b151561090857600080fd5b6102c65a03f4151561091957600080fd5b505050604051805190506000604051602001526040518763ffffffff167c010000000000000000000000000000000000000000000000000000000002815260040180878152602001868152602001858152602001848152602001838152602001828152602001965050505050505060206040518083038186803b151561099e57600080fd5b6102c65a03f415156109af57600080fd5b505050604051805190503073ffffffffffffffffffffffffffffffffffffffff16316000604051602001526040518363ffffffff167c0100000000000000000000000000000000000000000000000000000000028152600401808381526020018281526020019250505060206040518083038186803b1515610a3057600080fd5b6102c65a03f41515610a4157600080fd5b5050506040518051905090508173ffffffffffffffffffffffffffffffffffffffff1663d7ceab4c826060604051908101604052803373ffffffffffffffffffffffffffffffffffffffff1673ffffffffffffffffffffffffffffffffffffffff1681526020018873ffffffffffffffffffffffffffffffffffffffff1673ffffffffffffffffffffffffffffffffffffffff1681526020018a60000160009054906101000a900473ffffffffffffffffffffffffffffffffffffffff1673ffffffffffffffffffffffffffffffffffffffff1673ffffffffffffffffffffffffffffffffffffffff16815250610180604051908101604052808b6007015481526020018b6008015481526020018b600c015481526020018b600b015481526020018b600a015481526020018b600d0160009054906101000a900460ff166002811115610b8a57fe5b81526020018b6004015481526020018b6005015481526020018b6002015481526020018b6003015481526020018b6006015481526020018b600901548152508a6001016000604051602001526040518563ffffffff167c01000000000000000000000000000000000000000000000000000000000281526004018084600360200280838360005b83811015610c2c578082015181840152602081019050610c11565b5050505090500183600c60200280838360005b83811015610c5a578082015181840152602081019050610c3f565b5050505090500180602001828103825283818154600181600116156101000203166002900481526020019150805460018160011615610100020316600290048015610ce65780601f10610cbb57610100808354040283529160200191610ce6565b820191906000526020600020905b815481529060010190602001808311610cc957829003601f168201915b50509450505050506020604051808303818588803b1515610d0657600080fd5b6125ee5a03f11515610d1757600080fd5b5050505060405180519050925060008373ffffffffffffffffffffffffffffffffffffffff1614151515610d4a57600080fd5b82925050509392505050565b828054600181600116156101000203166002900490600052602060002090601f016020900481019282601f10610d9757805160ff1916838001178555610dc5565b82800160010185558215610dc5579182015b82811115610dc4578251825591602001919060010190610da9565b5b509050610dd29190610dd6565b5090565b610df891905b80821115610df4576000816000905550600101610ddc565b5090565b905600a165627a7a72305820097798ac9a8225d31e484b5ee303aab54cf0a9ae370427fbcc5376d24efa638b0029",
  "source": "pragma solidity ^0.4.19;\n\nimport \"contracts/Interface/SchedulerInterface.sol\";\nimport \"contracts/Library/RequestScheduleLib.sol\";\nimport \"contracts/Library/SchedulerLib.sol\";\n\n/**\n * @title BaseScheduler\n * @dev The foundational contract which provides the API for scheduling future transactions on the Alarm Client.\n */\ncontract BaseScheduler is SchedulerInterface {\n    using SchedulerLib for SchedulerLib.FutureTransaction;\n\n    address public feeRecipient;       // Recipient of the fee.\n\n    /*\n     * @dev Fallback function to be able to receive ether. This can occur\n     *  legitimately when scheduling fails due to a validation error.\n     */\n    function() public payable {}\n\n    /// Event that bubbles up the address of new requests made with this scheduler.\n    event NewRequest(address request);\n\n    /**\n     * @dev Schedules a new TransactionRequest using the 'full' parameters.\n     * @param _toAddress The address destination of the transaction.\n     * @param _callData The bytecode that will be included with the transaction.\n     * @param _uintArgs [0] The callGas of the transaction.\n     * @param _uintArgs [1] The value of ether to be sent with the transaction.\n     * @param _uintArgs [2] The size of the execution window of the transaction.\n     * @param _uintArgs [3] The (block or timestamp) of when the execution window starts.\n     * @param _uintArgs [4] The gasPrice which will be used to execute this transaction.\n     * @param _uintArgs [5] The fee attached to this transaction.\n     * @param _uintArgs [6] The bounty attached to this transaction.\n     * @param _uintArgs [7] The deposit required to claim this transaction.\n     * @return The address of the new TransactionRequest.   \n     */ \n    function schedule (\n        address   _toAddress,\n        bytes     _callData,\n        uint[8]   _uintArgs\n    )\n        doReset\n        public payable returns (address newRequest)\n    {\n        futureTransaction.toAddress         = _toAddress;\n        futureTransaction.callData          = _callData;\n        futureTransaction.callGas           = _uintArgs[0];\n        futureTransaction.callValue         = _uintArgs[1];\n        futureTransaction.windowSize        = _uintArgs[2];\n        futureTransaction.windowStart       = _uintArgs[3];\n        futureTransaction.gasPrice          = _uintArgs[4];\n        futureTransaction.fee               = _uintArgs[5];\n        futureTransaction.bounty            = _uintArgs[6];\n        futureTransaction.requiredDeposit   = _uintArgs[7];\n\n        futureTransaction.temporalUnit      = temporalUnit;\n\n        newRequest = futureTransaction.schedule(factoryAddress, feeRecipient);\n        require( newRequest != 0x0 );\n\n        NewRequest(newRequest);\n        return newRequest;\n    }\n}\n",
  "sourcePath": "/home/logan/Work/ethereum-alarm-clock/contracts/Scheduler/BaseScheduler.sol",
  "compiler": {
    "name": "solc",
    "version": "0.4.19+commit.c4cbbb05.Emscripten.clang"
  },
  "schemaVersion": "1.0.1",
  "updatedAt": "2018-02-23T01:47:15.424Z"
}