{
  "contractName": "BlockScheduler",
  "abi": [
    {
      "constant": false,
      "inputs": [
        {
          "name": "_toAddress",
          "type": "address"
        },
        {
          "name": "_callData",
          "type": "bytes"
        },
        {
          "name": "_uintArgs",
          "type": "uint256[8]"
        }
      ],
      "name": "schedule",
      "outputs": [
        {
          "name": "newRequest",
          "type": "address"
        }
      ],
      "payable": true,
      "stateMutability": "payable",
      "type": "function"
    },
    {
      "constant": true,
      "inputs": [],
      "name": "temporalUnit",
      "outputs": [
        {
          "name": "",
          "type": "uint8"
        }
      ],
      "payable": false,
      "stateMutability": "view",
      "type": "function"
    },
    {
      "constant": true,
      "inputs": [],
      "name": "feeRecipient",
      "outputs": [
        {
          "name": "",
          "type": "address"
        }
      ],
      "payable": false,
      "stateMutability": "view",
      "type": "function"
    },
    {
      "constant": true,
      "inputs": [],
      "name": "factoryAddress",
      "outputs": [
        {
          "name": "",
          "type": "address"
        }
      ],
      "payable": false,
      "stateMutability": "view",
      "type": "function"
    },
    {
      "inputs": [
        {
          "name": "_factoryAddress",
          "type": "address"
        },
        {
          "name": "_feeRecipient",
          "type": "address"
        }
      ],
      "payable": false,
      "stateMutability": "nonpayable",
      "type": "constructor"
    },
    {
      "payable": true,
      "stateMutability": "payable",
      "type": "fallback"
    },
    {
      "anonymous": false,
      "inputs": [
        {
          "indexed": false,
          "name": "request",
          "type": "address"
        }
      ],
      "name": "NewRequest",
      "type": "event"
    }
  ],
  "bytecode": "0x6060604052341561000f57600080fd5b604051604080610ca08339810160405280805190602001909190805190602001909190505060008273ffffffffffffffffffffffffffffffffffffffff161415151561005a57600080fd5b6001600060146101000a81548160ff0219169083600281111561007957fe5b0217905550816000806101000a81548173ffffffffffffffffffffffffffffffffffffffff021916908373ffffffffffffffffffffffffffffffffffffffff16021790555080600160006101000a81548173ffffffffffffffffffffffffffffffffffffffff021916908373ffffffffffffffffffffffffffffffffffffffff1602179055505050610b90806101106000396000f300606060405260043610610062576000357c0100000000000000000000000000000000000000000000000000000000900463ffffffff1680630801b654146100645780633c8a072e146101425780634690484014610179578063966dae0e146101ce575b005b610100600480803573ffffffffffffffffffffffffffffffffffffffff1690602001909190803590602001908201803590602001908080601f01602080910402602001604051908101604052809392919081815260200183838082843782019150505050505091908061010001906008806020026040519081016040528092919082600860200280828437820191505050505091905050610223565b604051808273ffffffffffffffffffffffffffffffffffffffff1673ffffffffffffffffffffffffffffffffffffffff16815260200191505060405180910390f35b341561014d57600080fd5b610155610b06565b6040518082600281111561016557fe5b60ff16815260200191505060405180910390f35b341561018457600080fd5b61018c610b19565b604051808273ffffffffffffffffffffffffffffffffffffffff1673ffffffffffffffffffffffffffffffffffffffff16815260200191505060405180910390f35b34156101d957600080fd5b6101e1610b3f565b604051808273ffffffffffffffffffffffffffffffffffffffff1673ffffffffffffffffffffffffffffffffffffffff16815260200191505060405180910390f35b60008060008060009054906101000a900473ffffffffffffffffffffffffffffffffffffffff16915073__PaymentLib____________________________635ee345e485600660088110151561027557fe5b602002015186600560088110151561028957fe5b602002015187600060088110151561029d57fe5b60200201518860016008811015156102b157fe5b60200201518960046008811015156102c557fe5b602002015173__RequestLib____________________________6345104b166040518163ffffffff167c010000000000000000000000000000000000000000000000000000000002815260040160206040518083038186803b151561032957600080fd5b5af4151561033657600080fd5b505050604051805190506040518763ffffffff167c010000000000000000000000000000000000000000000000000000000002815260040180878152602001868152602001858152602001848152602001838152602001828152602001965050505050505060206040518083038186803b15156103b257600080fd5b5af415156103bf57600080fd5b5050506040518051905090508034101515156103da57600080fd5b600160028111156103e757fe5b600060149054906101000a900460ff16600281111561040257fe5b1415610722578173ffffffffffffffffffffffffffffffffffffffff1663d7ceab4c346060604051908101604052803373ffffffffffffffffffffffffffffffffffffffff1673ffffffffffffffffffffffffffffffffffffffff168152602001600160009054906101000a900473ffffffffffffffffffffffffffffffffffffffff1673ffffffffffffffffffffffffffffffffffffffff1673ffffffffffffffffffffffffffffffffffffffff1681526020018a73ffffffffffffffffffffffffffffffffffffffff1673ffffffffffffffffffffffffffffffffffffffff168152506101806040519081016040528089600560088110151561050357fe5b6020020151815260200189600660088110151561051c57fe5b6020020151815260200160ff8152602001600a815260200160108152602001600060149054906101000a900460ff16600281111561055657fe5b815260200189600260088110151561056a57fe5b6020020151815260200189600360088110151561058357fe5b6020020151815260200189600060088110151561059c57fe5b602002015181526020018960016008811015156105b557fe5b602002015181526020018960046008811015156105ce57fe5b602002015181526020018960076008811015156105e757fe5b6020020151815250896040518563ffffffff167c01000000000000000000000000000000000000000000000000000000000281526004018084600360200280838360005b8381101561064657808201518184015260208101905061062b565b5050505090500183600c60200280838360005b83811015610674578082015181840152602081019050610659565b5050505090500180602001828103825283818151815260200191508051906020019080838360005b838110156106b757808201518184015260208101905061069c565b50505050905090810190601f1680156106e45780820380516001836020036101000a031916815260200191505b509450505050506020604051808303818588803b151561070357600080fd5b5af1151561071057600080fd5b50505050604051805190509250610a71565b60028081111561072e57fe5b600060149054906101000a900460ff16600281111561074957fe5b1415610a6b578173ffffffffffffffffffffffffffffffffffffffff1663d7ceab4c346060604051908101604052803373ffffffffffffffffffffffffffffffffffffffff1673ffffffffffffffffffffffffffffffffffffffff168152602001600160009054906101000a900473ffffffffffffffffffffffffffffffffffffffff1673ffffffffffffffffffffffffffffffffffffffff1673ffffffffffffffffffffffffffffffffffffffff1681526020018a73ffffffffffffffffffffffffffffffffffffffff1673ffffffffffffffffffffffffffffffffffffffff168152506101806040519081016040528089600560088110151561084a57fe5b6020020151815260200189600660088110151561086357fe5b60200201518152602001610e10815260200160b4815260200161012c8152602001600060149054906101000a900460ff16600281111561089f57fe5b81526020018960026008811015156108b357fe5b602002015181526020018960036008811015156108cc57fe5b602002015181526020018960006008811015156108e557fe5b602002015181526020018960016008811015156108fe57fe5b6020020151815260200189600460088110151561091757fe5b6020020151815260200189600760088110151561093057fe5b6020020151815250896040518563ffffffff167c01000000000000000000000000000000000000000000000000000000000281526004018084600360200280838360005b8381101561098f578082015181840152602081019050610974565b5050505090500183600c60200280838360005b838110156109bd5780820151818401526020810190506109a2565b5050505090500180602001828103825283818151815260200191508051906020019080838360005b83811015610a005780820151818401526020810190506109e5565b50505050905090810190601f168015610a2d5780820380516001836020036101000a031916815260200191505b509450505050506020604051808303818588803b1515610a4c57600080fd5b5af11515610a5957600080fd5b50505050604051805190509250610a70565b600080fd5b5b60008373ffffffffffffffffffffffffffffffffffffffff1614151515610a9757600080fd5b7f2749295aa7ffdbd4d16719dc03d592cd081eebd9bb790ceedce201a40675fc0383604051808273ffffffffffffffffffffffffffffffffffffffff1673ffffffffffffffffffffffffffffffffffffffff16815260200191505060405180910390a182925050509392505050565b600060149054906101000a900460ff1681565b600160009054906101000a900473ffffffffffffffffffffffffffffffffffffffff1681565b6000809054906101000a900473ffffffffffffffffffffffffffffffffffffffff16815600a165627a7a7230582078feb8eadea8595aa645b95d7e1456c2d5852220f86360bdc9294b78639ecbb50029",
  "source": "pragma solidity ^0.4.21;\n\nimport \"contracts/Library/RequestScheduleLib.sol\";\nimport \"contracts/Scheduler/BaseScheduler.sol\";\n\n/**\n * @title BlockScheduler\n * @dev Top-level contract that exposes the API to the Ethereum Alarm Clock service and passes in blocks as temporal unit.\n */\ncontract BlockScheduler is BaseScheduler {\n\n    /**\n     * @dev Constructor\n     * @param _factoryAddress Address of the RequestFactory which creates requests for this scheduler.\n     */\n    function BlockScheduler(address _factoryAddress, address _feeRecipient) public {\n        require(_factoryAddress != 0x0);\n\n        // Default temporal unit is block number.\n        temporalUnit = RequestScheduleLib.TemporalUnit.Blocks;\n\n        // Sets the factoryAddress variable found in SchedulerInterface contract.\n        factoryAddress = _factoryAddress;\n\n        // Sets the fee recipient for these schedulers.\n        feeRecipient = _feeRecipient;\n    }\n}\n",
  "sourcePath": "/Users/piotrkosinski/Projects/eac/contracts/Scheduler/BlockScheduler.sol",
  "compiler": {
    "name": "solc",
    "version": "0.4.21+commit.dfe3193c.Emscripten.clang"
  },
  "schemaVersion": "2.0.0",
  "updatedAt": "2018-04-12T07:44:20.674Z"
}