{
  "contractName": "Controlled",
  "abi": [
    {
      "constant": true,
      "inputs": [],
      "name": "controller_in_waiting",
      "outputs": [
        {
          "name": "",
          "type": "address"
        }
      ],
      "payable": false,
      "stateMutability": "view",
      "type": "function"
    },
    {
      "constant": true,
      "inputs": [],
      "name": "controller",
      "outputs": [
        {
          "name": "",
          "type": "address"
        }
      ],
      "payable": false,
      "stateMutability": "view",
      "type": "function"
    },
    {
      "inputs": [],
      "payable": false,
      "stateMutability": "nonpayable",
      "type": "constructor"
    },
    {
      "constant": false,
      "inputs": [
        {
          "name": "_newController",
          "type": "address"
        }
      ],
      "name": "transferControl",
      "outputs": [
        {
          "name": "",
          "type": "bool"
        }
      ],
      "payable": false,
      "stateMutability": "nonpayable",
      "type": "function"
    },
    {
      "constant": false,
      "inputs": [],
      "name": "assumeControl",
      "outputs": [
        {
          "name": "",
          "type": "bool"
        }
      ],
      "payable": false,
      "stateMutability": "nonpayable",
      "type": "function"
    }
  ],
  "bytecode": "0x6060604052341561000f57600080fd5b336000806101000a81548173ffffffffffffffffffffffffffffffffffffffff021916908373ffffffffffffffffffffffffffffffffffffffff1602179055506103778061005e6000396000f300606060405260043610610062576000357c0100000000000000000000000000000000000000000000000000000000900463ffffffff1680633684edf1146100675780636d16fa41146100bc578063caa4c5d01461010d578063f77c47911461013a575b600080fd5b341561007257600080fd5b61007a61018f565b604051808273ffffffffffffffffffffffffffffffffffffffff1673ffffffffffffffffffffffffffffffffffffffff16815260200191505060405180910390f35b34156100c757600080fd5b6100f3600480803573ffffffffffffffffffffffffffffffffffffffff169060200190919050506101b5565b604051808215151515815260200191505060405180910390f35b341561011857600080fd5b61012061025c565b604051808215151515815260200191505060405180910390f35b341561014557600080fd5b61014d610326565b604051808273ffffffffffffffffffffffffffffffffffffffff1673ffffffffffffffffffffffffffffffffffffffff16815260200191505060405180910390f35b600160009054906101000a900473ffffffffffffffffffffffffffffffffffffffff1681565b60008060009054906101000a900473ffffffffffffffffffffffffffffffffffffffff1673ffffffffffffffffffffffffffffffffffffffff163373ffffffffffffffffffffffffffffffffffffffff1614151561021257600080fd5b81600160006101000a81548173ffffffffffffffffffffffffffffffffffffffff021916908373ffffffffffffffffffffffffffffffffffffffff16021790555060019050919050565b6000600160009054906101000a900473ffffffffffffffffffffffffffffffffffffffff1673ffffffffffffffffffffffffffffffffffffffff163373ffffffffffffffffffffffffffffffffffffffff161415156102ba57600080fd5b600160006101000a81549073ffffffffffffffffffffffffffffffffffffffff0219169055336000806101000a81548173ffffffffffffffffffffffffffffffffffffffff021916908373ffffffffffffffffffffffffffffffffffffffff1602179055506001905090565b6000809054906101000a900473ffffffffffffffffffffffffffffffffffffffff16815600a165627a7a72305820f74a2348e3c4c98e1e538b90e27c570ba7aab706278d1b55141ec7a0328e439d0029",
  "source": "pragma solidity ^0.4.18;\n\ncontract Controlled {\n    address public controller;\n    address public controller_in_waiting;\n\n    function Controlled() public {\n        controller = msg.sender;\n    }\n\n    modifier onlyController() {\n        require(msg.sender == controller);\n        _;\n    }\n\n    function transferControl(address _newController)\n        onlyController\n        public returns (bool)\n    {\n        controller_in_waiting = _newController;\n        return true;\n    }\n\n    function assumeControl()\n        public returns (bool)\n    {\n        require(msg.sender == controller_in_waiting);\n        delete controller_in_waiting;\n        controller = msg.sender;\n        return true;\n    }\n}\n",
  "sourcePath": "/home/logan/Work/ethereum-alarm-clock/contracts/Dispatch/Controlled.sol",
  "compiler": {
    "name": "solc",
    "version": "0.4.19+commit.c4cbbb05.Emscripten.clang"
  },
  "schemaVersion": "1.0.1",
  "updatedAt": "2018-02-23T01:52:26.685Z"
}