{
  "contractName": "MathLib",
  "abi": [
    {
      "constant": true,
      "inputs": [
        {
          "name": "a",
          "type": "uint256"
        },
        {
          "name": "b",
          "type": "uint256"
        }
      ],
      "name": "max",
      "outputs": [
        {
          "name": "",
          "type": "uint256"
        }
      ],
      "payable": false,
      "stateMutability": "pure",
      "type": "function"
    },
    {
      "constant": true,
      "inputs": [
        {
          "name": "a",
          "type": "uint256"
        },
        {
          "name": "b",
          "type": "uint256"
        }
      ],
      "name": "min",
      "outputs": [
        {
          "name": "",
          "type": "uint256"
        }
      ],
      "payable": false,
      "stateMutability": "pure",
      "type": "function"
    },
    {
      "constant": true,
      "inputs": [
        {
          "name": "a",
          "type": "uint256"
        }
      ],
      "name": "safeCastSigned",
      "outputs": [
        {
          "name": "",
          "type": "int256"
        }
      ],
      "payable": false,
      "stateMutability": "pure",
      "type": "function"
    }
  ],
  "bytecode": "0x6060604052341561000f57600080fd5b61018e8061001e6000396000f300606060405260043610610057576000357c0100000000000000000000000000000000000000000000000000000000900463ffffffff1680636d5433e61461005c5780637ae2b5c71461009157806388102583146100c6575b600080fd5b61007b60048080359060200190919080359060200190919050506100f2565b6040518082815260200191505060405180910390f35b6100b0600480803590602001909190803590602001909190505061010f565b6040518082815260200191505060405180910390f35b6100dc600480803590602001909190505061012c565b6040518082815260200191505060405180910390f35b6000818310151561010557829050610109565b8190505b92915050565b6000818311151561012257829050610126565b8190505b92915050565b60007f7fffffffffffffffffffffffffffffffffffffffffffffffffffffffffffffff821115151561015a57fe5b8190509190505600a165627a7a723058208ec6724a73a2c57c6518f5eddcffea36a86a1308dcd8a500f20558925602ce410029",
  "source": "pragma solidity ^0.4.19;\n\nlibrary MathLib {\n    uint constant INT_MAX = 57896044618658097711785492504343953926634992332820282019728792003956564819967;  // 2**255 - 1\n    /*\n     * Subtracts b from a in a manner such that zero is returned when an\n     * underflow condition is met.\n     */\n    // function flooredSub(uint a, uint b) returns (uint) {\n    //     if (b >= a) {\n    //         return 0;\n    //     } else {\n    //         return a - b;\n    //     }\n    // }\n\n    // /*\n    //  * Adds b to a in a manner that throws an exception when overflow\n    //  * conditions are met.\n    //  */\n    // function safeAdd(uint a, uint b) returns (uint) {\n    //     if (a + b >= a) {\n    //         return a + b;\n    //     } else {\n    //         throw;\n    //     }\n    // }\n\n    // /*\n    //  * Multiplies a by b in a manner that throws an exception when overflow\n    //  * conditions are met.\n    //  */\n    // function safeMultiply(uint a, uint b) returns (uint) {\n    //     var result = a * b;\n    //     if (b == 0 || result / b == a) {\n    //         return a * b;\n    //     } else {\n    //         throw;\n    //     }\n    // }\n\n    /*\n     * Return the larger of a or b.  Returns a if a == b.\n     */\n    function max(uint a, uint b) \n        public pure returns (uint)\n    {\n        if (a >= b) {\n            return a;\n        } else {\n            return b;\n        }\n    }\n\n    /*\n     * Return the larger of a or b.  Returns a if a == b.\n     */\n    function min(uint a, uint b) \n        public pure returns (uint)\n    {\n        if (a <= b) {\n            return a;\n        } else {\n            return b;\n        }\n    }\n\n    /*\n     * Returns a represented as a signed integer in a manner that throw an\n     * exception if casting to signed integer would result in a negative\n     * number.\n     */\n    function safeCastSigned(uint a) \n        public pure returns (int)\n    {\n        assert(a <= INT_MAX);\n        return int(a);\n    }\n    \n}\n",
  "sourcePath": "/home/logan/Work/ethereum-alarm-clock/contracts/Library/MathLib.sol",
  "compiler": {
    "name": "solc",
    "version": "0.4.19+commit.c4cbbb05.Emscripten.clang"
  },
  "schemaVersion": "1.0.1",
  "updatedAt": "2018-02-23T01:52:26.692Z"
}