{
  "contractName": "RequestFactory",
  "abi": [
    {
      "constant": true,
      "inputs": [],
      "name": "TIMESTAMP_BUCKET_SIZE",
      "outputs": [
        {
          "name": "",
          "type": "uint256"
        }
      ],
      "payable": false,
      "stateMutability": "view",
      "type": "function"
    },
    {
      "constant": true,
      "inputs": [],
      "name": "transactionRequestCore",
      "outputs": [
        {
          "name": "",
          "type": "address"
        }
      ],
      "payable": false,
      "stateMutability": "view",
      "type": "function"
    },
    {
      "constant": true,
      "inputs": [],
      "name": "BLOCKS_BUCKET_SIZE",
      "outputs": [
        {
          "name": "",
          "type": "uint256"
        }
      ],
      "payable": false,
      "stateMutability": "view",
      "type": "function"
    },
    {
      "inputs": [
        {
          "name": "_transactionRequestCore",
          "type": "address"
        }
      ],
      "payable": false,
      "stateMutability": "nonpayable",
      "type": "constructor"
    },
    {
      "anonymous": false,
      "inputs": [
        {
          "indexed": false,
          "name": "error",
          "type": "uint8"
        }
      ],
      "name": "ValidationError",
      "type": "event"
    },
    {
      "anonymous": false,
      "inputs": [
        {
          "indexed": true,
          "name": "target",
          "type": "address"
        },
        {
          "indexed": false,
          "name": "clone",
          "type": "address"
        }
      ],
      "name": "CloneCreated",
      "type": "event"
    },
    {
      "anonymous": false,
      "inputs": [
        {
          "indexed": false,
          "name": "request",
          "type": "address"
        },
        {
          "indexed": true,
          "name": "owner",
          "type": "address"
        },
        {
          "indexed": true,
          "name": "bucket",
          "type": "int256"
        },
        {
          "indexed": false,
          "name": "params",
          "type": "uint256[12]"
        }
      ],
      "name": "RequestCreated",
      "type": "event"
    },
    {
      "constant": false,
      "inputs": [
        {
          "name": "_addressArgs",
          "type": "address[3]"
        },
        {
          "name": "_uintArgs",
          "type": "uint256[12]"
        },
        {
          "name": "_callData",
          "type": "bytes"
        }
      ],
      "name": "createRequest",
      "outputs": [
        {
          "name": "",
          "type": "address"
        }
      ],
      "payable": true,
      "stateMutability": "payable",
      "type": "function"
    },
    {
      "constant": false,
      "inputs": [
        {
          "name": "_addressArgs",
          "type": "address[3]"
        },
        {
          "name": "_uintArgs",
          "type": "uint256[12]"
        },
        {
          "name": "_callData",
          "type": "bytes"
        }
      ],
      "name": "createValidatedRequest",
      "outputs": [
        {
          "name": "",
          "type": "address"
        }
      ],
      "payable": true,
      "stateMutability": "payable",
      "type": "function"
    },
    {
      "constant": true,
      "inputs": [
        {
          "name": "_addressArgs",
          "type": "address[3]"
        },
        {
          "name": "_uintArgs",
          "type": "uint256[12]"
        },
        {
          "name": "_callData",
          "type": "bytes"
        },
        {
          "name": "_endowment",
          "type": "uint256"
        }
      ],
      "name": "validateRequestParams",
      "outputs": [
        {
          "name": "",
          "type": "bool[6]"
        }
      ],
      "payable": false,
      "stateMutability": "view",
      "type": "function"
    },
    {
      "constant": true,
      "inputs": [
        {
          "name": "_address",
          "type": "address"
        }
      ],
      "name": "isKnownRequest",
      "outputs": [
        {
          "name": "isKnown",
          "type": "bool"
        }
      ],
      "payable": false,
      "stateMutability": "view",
      "type": "function"
    },
    {
      "constant": true,
      "inputs": [
        {
          "name": "windowStart",
          "type": "uint256"
        },
        {
          "name": "unit",
          "type": "uint8"
        }
      ],
      "name": "getBucket",
      "outputs": [
        {
          "name": "",
          "type": "int256"
        }
      ],
      "payable": false,
      "stateMutability": "pure",
      "type": "function"
    }
  ],
  "bytecode": "0x6060604052341561000f57600080fd5b6040516020806111d78339810160405280805190602001909190505060008173ffffffffffffffffffffffffffffffffffffffff161415151561005157600080fd5b806000806101000a81548173ffffffffffffffffffffffffffffffffffffffff021916908373ffffffffffffffffffffffffffffffffffffffff16021790555050611136806100a16000396000f30060606040526004361061008e576000357c0100000000000000000000000000000000000000000000000000000000900463ffffffff16806348b47b8f146100935780634b4e23e11461018e5780637c4cc101146101b75780639be91642146102a2578063b64eecb1146102f3578063d7ceab4c14610348578063ecd8f29414610433578063fe0a5ab014610476575b600080fd5b341561009e57600080fd5b6101506004808060600190600380602002604051908101604052809291908260036020028082843782019150505050509190806101800190600c806020026040519081016040528092919082600c6020028082843782019150505050509190803590602001908201803590602001908080601f0160208091040260200160405190810160405280939291908181526020018383808284378201915050505050509190803590602001909190505061049f565b6040518082600660200280838360005b8381101561017b578082015181840152602081019050610160565b5050505090500191505060405180910390f35b341561019957600080fd5b6101a161070c565b6040518082815260200191505060405180910390f35b6102606004808060600190600380602002604051908101604052809291908260036020028082843782019150505050509190806101800190600c806020026040519081016040528092919082600c6020028082843782019150505050509190803590602001908201803590602001908080601f01602080910402602001604051908101604052809392919081815260200183838082843782019150505050505091905050610712565b604051808273ffffffffffffffffffffffffffffffffffffffff1673ffffffffffffffffffffffffffffffffffffffff16815260200191505060405180910390f35b34156102ad57600080fd5b6102d9600480803573ffffffffffffffffffffffffffffffffffffffff16906020019091905050610ae9565b604051808215151515815260200191505060405180910390f35b34156102fe57600080fd5b610306610b3f565b604051808273ffffffffffffffffffffffffffffffffffffffff1673ffffffffffffffffffffffffffffffffffffffff16815260200191505060405180910390f35b6103f16004808060600190600380602002604051908101604052809291908260036020028082843782019150505050509190806101800190600c806020026040519081016040528092919082600c6020028082843782019150505050509190803590602001908201803590602001908080601f01602080910402602001604051908101604052809392919081815260200183838082843782019150505050505091905050610b64565b604051808273ffffffffffffffffffffffffffffffffffffffff1673ffffffffffffffffffffffffffffffffffffffff16815260200191505060405180910390f35b341561043e57600080fd5b610460600480803590602001909190803560ff16906020019091905050610ee3565b6040518082815260200191505060405180910390f35b341561048157600080fd5b610489610f7f565b6040518082815260200191505060405180910390f35b6104a76110cc565b73__RequestLib____________________________6363351d696080604051908101604052803373ffffffffffffffffffffffffffffffffffffffff1673ffffffffffffffffffffffffffffffffffffffff16815260200188600060038110151561050e57fe5b602002015173ffffffffffffffffffffffffffffffffffffffff1673ffffffffffffffffffffffffffffffffffffffff16815260200188600160038110151561055357fe5b602002015173ffffffffffffffffffffffffffffffffffffffff1673ffffffffffffffffffffffffffffffffffffffff16815260200188600260038110151561059857fe5b602002015173ffffffffffffffffffffffffffffffffffffffff1673ffffffffffffffffffffffffffffffffffffffff168152508686866040518563ffffffff167c01000000000000000000000000000000000000000000000000000000000281526004018085600460200280838360005b8381101561062557808201518184015260208101905061060a565b5050505090500184600c60200280838360005b83811015610653578082015181840152602081019050610638565b5050505090500180602001838152602001828103825284818151815260200191508051906020019080838360005b8381101561069c578082015181840152602081019050610681565b50505050905090810190601f1680156106c95780820380516001836020036101000a031916815260200191505b509550505050505060c06040518083038186803b15156106e857600080fd5b5af415156106f557600080fd5b5050506040518060c0016040529050949350505050565b610e1081565b60008061073f6000809054906101000a900473ffffffffffffffffffffffffffffffffffffffff16610f84565b90508073ffffffffffffffffffffffffffffffffffffffff1663820e8522346080604051908101604052803373ffffffffffffffffffffffffffffffffffffffff1673ffffffffffffffffffffffffffffffffffffffff1681526020018960006003811015156107ab57fe5b602002015173ffffffffffffffffffffffffffffffffffffffff1673ffffffffffffffffffffffffffffffffffffffff1681526020018960016003811015156107f057fe5b602002015173ffffffffffffffffffffffffffffffffffffffff1673ffffffffffffffffffffffffffffffffffffffff16815260200189600260038110151561083557fe5b602002015173ffffffffffffffffffffffffffffffffffffffff1673ffffffffffffffffffffffffffffffffffffffff1681525087876040518563ffffffff167c01000000000000000000000000000000000000000000000000000000000281526004018084600460200280838360005b838110156108c15780820151818401526020810190506108a6565b5050505090500183600c60200280838360005b838110156108ef5780820151818401526020810190506108d4565b5050505090500180602001828103825283818151815260200191508051906020019080838360005b83811015610932578082015181840152602081019050610917565b50505050905090810190601f16801561095f5780820380516001836020036101000a031916815260200191505b509450505050506000604051808303818588803b151561097e57600080fd5b5af1151561098b57600080fd5b5050505060018060008373ffffffffffffffffffffffffffffffffffffffff1673ffffffffffffffffffffffffffffffffffffffff16815260200190815260200160002060006101000a81548160ff021916908315150217905550610a21846007600c811015156109f857fe5b6020020151856005600c81101515610a0c57fe5b60200201516002811115610a1c57fe5b610ee3565b856000600381101515610a3057fe5b602002015173ffffffffffffffffffffffffffffffffffffffff167f15aac4af776447c09d895192c86bab463c38b92191f3ba3f7b8831723c548d6e8387604051808373ffffffffffffffffffffffffffffffffffffffff1673ffffffffffffffffffffffffffffffffffffffff16815260200182600c60200280838360005b83811015610acb578082015181840152602081019050610ab0565b505050509050019250505060405180910390a3809150509392505050565b6000600160008373ffffffffffffffffffffffffffffffffffffffff1673ffffffffffffffffffffffffffffffffffffffff16815260200190815260200160002060009054906101000a900460ff169050919050565b6000809054906101000a900473ffffffffffffffffffffffffffffffffffffffff1681565b6000610b6e6110cc565b610b7a8585853461049f565b90508073__IterTools_____________________________635fa77dac90916040518263ffffffff167c01000000000000000000000000000000000000000000000000000000000281526004018082600660200280838360005b83811015610bef578082015181840152602081019050610bd4565b5050505090500191505060206040518083038186803b1515610c1057600080fd5b5af41515610c1d57600080fd5b505050604051805190501515610ecd57806000600681101515610c3c57fe5b60200201511515610c91577f077a9c333594b471fbfcd18e36bfb234269fe83c1cbb6a332f0b228258bcc02a60006005811115610c7557fe5b604051808260ff1660ff16815260200191505060405180910390a15b806001600681101515610ca057fe5b60200201511515610cf5577f077a9c333594b471fbfcd18e36bfb234269fe83c1cbb6a332f0b228258bcc02a60016005811115610cd957fe5b604051808260ff1660ff16815260200191505060405180910390a15b806002600681101515610d0457fe5b60200201511515610d59577f077a9c333594b471fbfcd18e36bfb234269fe83c1cbb6a332f0b228258bcc02a60026005811115610d3d57fe5b604051808260ff1660ff16815260200191505060405180910390a15b806003600681101515610d6857fe5b60200201511515610dbd577f077a9c333594b471fbfcd18e36bfb234269fe83c1cbb6a332f0b228258bcc02a60036005811115610da157fe5b604051808260ff1660ff16815260200191505060405180910390a15b806004600681101515610dcc57fe5b60200201511515610e21577f077a9c333594b471fbfcd18e36bfb234269fe83c1cbb6a332f0b228258bcc02a60046005811115610e0557fe5b604051808260ff1660ff16815260200191505060405180910390a15b806005600681101515610e3057fe5b60200201511515610e84577f077a9c333594b471fbfcd18e36bfb234269fe83c1cbb6a332f0b228258bcc02a600580811115610e6857fe5b604051808260ff1660ff16815260200191505060405180910390a15b3373ffffffffffffffffffffffffffffffffffffffff166108fc349081150290604051600060405180830381858888f193505050501515610ec457600080fd5b60009150610edb565b610ed8858585610712565b91505b509392505050565b600080600060016002811115610ef557fe5b846002811115610f0157fe5b1415610f335760f091507fffffffffffffffffffffffffffffffffffffffffffffffffffffffffffffffff9050610f65565b600280811115610f3f57fe5b846002811115610f4b57fe5b1415610f5f57610e10915060019050610f64565b600080fd5b5b8185811515610f7057fe5b06850381029250505092915050565b60f081565b6000610f8e6110f6565b600080608060405190810160405280604881526020017f3460425760388060106000396000f30036600060ff376000803660ff73beefbe81526020017fefbeefbeefbeefbeefbeefbeefbeefbeef5af4156032573d80600060ff3e60ff81526020017ff3005b600080fd000000000000000000000000000000000000000000000000008152509250846c01000000000000000000000000029150600090505b60148110156110b557818160148110151561104457fe5b1a7f0100000000000000000000000000000000000000000000000000000000000000028382601d0181518110151561107857fe5b9060200101907effffffffffffffffffffffffffffffffffffffffffffffffffffffffffffff1916908160001a905350808060010191505061102d565b82516020840181816000f095505050505050919050565b60c0604051908101604052806006905b600015158152602001906001900390816110dc5790505090565b6020604051908101604052806000815250905600a165627a7a723058205745d2be8a21c69705779584608db61e20a71a6fb4b952f3856e78a16bedc02d0029",
  "source": "pragma solidity ^0.4.21;\n\nimport \"contracts/Interface/RequestFactoryInterface.sol\";\nimport \"contracts/TransactionRequestCore.sol\";\nimport \"contracts/Library/RequestLib.sol\";\nimport \"contracts/IterTools.sol\";\nimport \"contracts/CloneFactory.sol\";\nimport \"contracts/Library/RequestScheduleLib.sol\";\n\n/**\n * @title RequestFactory\n * @dev Contract which will produce new TransactionRequests.\n */\ncontract RequestFactory is RequestFactoryInterface, CloneFactory {\n    using IterTools for bool[6];\n\n    TransactionRequestCore public transactionRequestCore;\n\n    uint constant public BLOCKS_BUCKET_SIZE = 240; //~1h\n    uint constant public TIMESTAMP_BUCKET_SIZE = 3600; //1h\n\n    function RequestFactory(\n        address _transactionRequestCore\n    ) \n        public \n    {\n        require(_transactionRequestCore != 0x0);\n\n        transactionRequestCore = TransactionRequestCore(_transactionRequestCore);\n    }\n\n    /**\n     * @dev The lowest level interface for creating a transaction request.\n     *\n     * @param _addressArgs [0] -  meta.owner\n     * @param _addressArgs [1] -  paymentData.feeRecipient\n     * @param _addressArgs [2] -  txnData.toAddress\n     * @param _uintArgs [0]    -  paymentData.fee\n     * @param _uintArgs [1]    -  paymentData.bounty\n     * @param _uintArgs [2]    -  schedule.claimWindowSize\n     * @param _uintArgs [3]    -  schedule.freezePeriod\n     * @param _uintArgs [4]    -  schedule.reservedWindowSize\n     * @param _uintArgs [5]    -  schedule.temporalUnit\n     * @param _uintArgs [6]    -  schedule.windowSize\n     * @param _uintArgs [7]    -  schedule.windowStart\n     * @param _uintArgs [8]    -  txnData.callGas\n     * @param _uintArgs [9]    -  txnData.callValue\n     * @param _uintArgs [10]   -  txnData.gasPrice\n     * @param _uintArgs [11]   -  claimData.requiredDeposit\n     * @param _callData        -  The call data\n     */\n    function createRequest(\n        address[3]  _addressArgs,\n        uint[12]    _uintArgs,\n        bytes       _callData\n    )\n        public payable returns (address)\n    {\n        // Create a new transaction request clone from transactionRequestCore.\n        address transactionRequest = createClone(transactionRequestCore);\n\n        // Call initialize on the transaction request clone.\n        TransactionRequestCore(transactionRequest).initialize.value(msg.value)(\n            [\n                msg.sender,       // Created by\n                _addressArgs[0],  // meta.owner\n                _addressArgs[1],  // paymentData.feeRecipient\n                _addressArgs[2]   // txnData.toAddress\n            ],\n            _uintArgs,            //uint[12]\n            _callData\n        );\n\n        // Track the address locally\n        requests[transactionRequest] = true;\n\n        // Log the creation.\n        emit RequestCreated(\n            transactionRequest,\n            _addressArgs[0],\n            getBucket(_uintArgs[7], RequestScheduleLib.TemporalUnit(_uintArgs[5])),\n            _uintArgs\n        );\n\n        return transactionRequest;\n    }\n\n    /**\n     *  The same as createRequest except that it requires validation prior to\n     *  creation.\n     *\n     *  Parameters are the same as `createRequest`\n     */\n    function createValidatedRequest(\n        address[3]  _addressArgs,\n        uint[12]    _uintArgs,\n        bytes       _callData\n    )\n        public payable returns (address)\n    {\n        bool[6] memory isValid = validateRequestParams(\n            _addressArgs,\n            _uintArgs,\n            _callData,\n            msg.value\n        );\n\n        if (!isValid.all()) {\n            if (!isValid[0]) {\n                emit ValidationError(uint8(Errors.InsufficientEndowment));\n            }\n            if (!isValid[1]) {\n                emit ValidationError(uint8(Errors.ReservedWindowBiggerThanExecutionWindow));\n            }\n            if (!isValid[2]) {\n                emit ValidationError(uint8(Errors.InvalidTemporalUnit));\n            }\n            if (!isValid[3]) {\n                emit ValidationError(uint8(Errors.ExecutionWindowTooSoon));\n            }\n            if (!isValid[4]) {\n                emit ValidationError(uint8(Errors.CallGasTooHigh));\n            }\n            if (!isValid[5]) {\n                emit ValidationError(uint8(Errors.EmptyToAddress));\n            }\n\n            // Try to return the ether sent with the message\n            msg.sender.transfer(msg.value);\n            \n            return 0x0;\n        }\n\n        return createRequest(_addressArgs, _uintArgs, _callData);\n    }\n\n    /// ----------------------------\n    /// Internal\n    /// ----------------------------\n\n    /*\n     *  @dev The enum for launching `ValidationError` events and mapping them to an error.\n     */\n    enum Errors {\n        InsufficientEndowment,\n        ReservedWindowBiggerThanExecutionWindow,\n        InvalidTemporalUnit,\n        ExecutionWindowTooSoon,\n        CallGasTooHigh,\n        EmptyToAddress\n    }\n\n    event ValidationError(uint8 error);\n\n    /*\n     * @dev Validate the constructor arguments for either `createRequest` or `createValidatedRequest`.\n     */\n    function validateRequestParams(\n        address[3]  _addressArgs,\n        uint[12]    _uintArgs,\n        bytes       _callData,\n        uint        _endowment\n    )\n        public view returns (bool[6])\n    {\n        return RequestLib.validate(\n            [\n                msg.sender,      // meta.createdBy\n                _addressArgs[0],  // meta.owner\n                _addressArgs[1],  // paymentData.feeRecipient\n                _addressArgs[2]   // txnData.toAddress\n            ],\n            _uintArgs,\n            _callData,\n            _endowment\n        );\n    }\n\n    /// Mapping to hold known requests.\n    mapping (address => bool) requests;\n\n    function isKnownRequest(address _address)\n        public view returns (bool isKnown)\n    {\n        return requests[_address];\n    }\n\n    function getBucket(uint windowStart, RequestScheduleLib.TemporalUnit unit)\n        public pure returns(int)\n    {\n        uint bucketSize;\n        /* since we want to handle both blocks and timestamps\n            and do not want to get into case where buckets overlaps\n            block buckets are going to be negative ints\n            timestamp buckets are going to be positive ints\n            we'll overflow after 2**255-1 blocks instead of 2**256-1 since we encoding this on int256\n        */\n        int sign;\n\n        if (unit == RequestScheduleLib.TemporalUnit.Blocks) {\n            bucketSize = BLOCKS_BUCKET_SIZE;\n            sign = -1;\n        } else if (unit == RequestScheduleLib.TemporalUnit.Timestamp) {\n            bucketSize = TIMESTAMP_BUCKET_SIZE;\n            sign = 1;\n        } else {\n            revert();\n        }\n        return sign * int(windowStart - (windowStart % bucketSize));\n    }\n}\n",
  "sourcePath": "/Users/piotrkosinski/Projects/eac/contracts/RequestFactory.sol",
  "compiler": {
    "name": "solc",
    "version": "0.4.21+commit.dfe3193c.Emscripten.clang"
  },
  "schemaVersion": "2.0.0",
  "updatedAt": "2018-04-12T07:44:20.690Z"
}