{
  "contractName": "RequestTracker",
  "abi": [
    {
      "constant": true,
      "inputs": [
        {
          "name": "factory",
          "type": "address"
        },
        {
          "name": "request",
          "type": "address"
        }
      ],
      "name": "getWindowStart",
      "outputs": [
        {
          "name": "",
          "type": "uint256"
        }
      ],
      "payable": false,
      "stateMutability": "view",
      "type": "function"
    },
    {
      "constant": true,
      "inputs": [
        {
          "name": "factory",
          "type": "address"
        },
        {
          "name": "request",
          "type": "address"
        }
      ],
      "name": "getPreviousRequest",
      "outputs": [
        {
          "name": "",
          "type": "address"
        }
      ],
      "payable": false,
      "stateMutability": "view",
      "type": "function"
    },
    {
      "constant": true,
      "inputs": [
        {
          "name": "factory",
          "type": "address"
        },
        {
          "name": "request",
          "type": "address"
        }
      ],
      "name": "getNextRequest",
      "outputs": [
        {
          "name": "",
          "type": "address"
        }
      ],
      "payable": false,
      "stateMutability": "view",
      "type": "function"
    },
    {
      "constant": false,
      "inputs": [
        {
          "name": "request",
          "type": "address"
        },
        {
          "name": "startWindow",
          "type": "uint256"
        }
      ],
      "name": "addRequest",
      "outputs": [
        {
          "name": "",
          "type": "bool"
        }
      ],
      "payable": false,
      "stateMutability": "nonpayable",
      "type": "function"
    },
    {
      "constant": false,
      "inputs": [
        {
          "name": "request",
          "type": "address"
        }
      ],
      "name": "removeRequest",
      "outputs": [
        {
          "name": "",
          "type": "bool"
        }
      ],
      "payable": false,
      "stateMutability": "nonpayable",
      "type": "function"
    },
    {
      "constant": true,
      "inputs": [
        {
          "name": "factory",
          "type": "address"
        },
        {
          "name": "request",
          "type": "address"
        }
      ],
      "name": "isKnownRequest",
      "outputs": [
        {
          "name": "",
          "type": "bool"
        }
      ],
      "payable": false,
      "stateMutability": "view",
      "type": "function"
    },
    {
      "constant": true,
      "inputs": [
        {
          "name": "factory",
          "type": "address"
        },
        {
          "name": "operator",
          "type": "bytes2"
        },
        {
          "name": "value",
          "type": "uint256"
        }
      ],
      "name": "query",
      "outputs": [
        {
          "name": "",
          "type": "address"
        }
      ],
      "payable": false,
      "stateMutability": "view",
      "type": "function"
    }
  ],
  "bytecode": "0x6060604052341561000f57600080fd5b610c528061001e6000396000f300606060405260043610610083576000357c0100000000000000000000000000000000000000000000000000000000900463ffffffff16806309d33f1d146100885780631acb2719146100e2578063592685d51461017a578063ac8d6030146101e6578063b15dcc2514610237578063bf2e694f146102e3578063c262df451461037b575b600080fd5b341561009357600080fd5b6100c8600480803573ffffffffffffffffffffffffffffffffffffffff169060200190919080359060200190919050506103eb565b604051808215151515815260200191505060405180910390f35b34156100ed57600080fd5b610138600480803573ffffffffffffffffffffffffffffffffffffffff1690602001909190803573ffffffffffffffffffffffffffffffffffffffff16906020019091905050610572565b604051808273ffffffffffffffffffffffffffffffffffffffff1673ffffffffffffffffffffffffffffffffffffffff16815260200191505060405180910390f35b341561018557600080fd5b6101d0600480803573ffffffffffffffffffffffffffffffffffffffff1690602001909190803573ffffffffffffffffffffffffffffffffffffffff16906020019091905050610676565b6040518082815260200191505060405180910390f35b34156101f157600080fd5b61021d600480803573ffffffffffffffffffffffffffffffffffffffff16906020019091905050610776565b604051808215151515815260200191505060405180910390f35b341561024257600080fd5b6102a1600480803573ffffffffffffffffffffffffffffffffffffffff169060200190919080357dffffffffffffffffffffffffffffffffffffffffffffffffffffffffffff1916906020019091908035906020019091905050610867565b604051808273ffffffffffffffffffffffffffffffffffffffff1673ffffffffffffffffffffffffffffffffffffffff16815260200191505060405180910390f35b34156102ee57600080fd5b610339600480803573ffffffffffffffffffffffffffffffffffffffff1690602001909190803573ffffffffffffffffffffffffffffffffffffffff16906020019091905050610a22565b604051808273ffffffffffffffffffffffffffffffffffffffff1673ffffffffffffffffffffffffffffffffffffffff16815260200191505060405180910390f35b341561038657600080fd5b6103d1600480803573ffffffffffffffffffffffffffffffffffffffff1690602001909190803573ffffffffffffffffffffffffffffffffffffffff16906020019091905050610b26565b604051808215151515815260200191505060405180910390f35b60008060003373ffffffffffffffffffffffffffffffffffffffff1673ffffffffffffffffffffffffffffffffffffffff16815260200190815260200160002073__GroveLib______________________________63bacd695890918573ffffffffffffffffffffffffffffffffffffffff1660010273__MathLib_______________________________6388102583876000604051602001526040518263ffffffff167c01000000000000000000000000000000000000000000000000000000000281526004018082815260200191505060206040518083038186803b15156104d457600080fd5b6102c65a03f415156104e557600080fd5b505050604051805190506040518463ffffffff167c0100000000000000000000000000000000000000000000000000000000028152600401808481526020018360001916600019168152602001828152602001935050505060006040518083038186803b151561055457600080fd5b6102c65a03f4151561056557600080fd5b5050506001905092915050565b60008060008473ffffffffffffffffffffffffffffffffffffffff1673ffffffffffffffffffffffffffffffffffffffff16815260200190815260200160002073__GroveLib______________________________63c4144b2690918473ffffffffffffffffffffffffffffffffffffffff166001026000604051602001526040518363ffffffff167c01000000000000000000000000000000000000000000000000000000000281526004018083815260200182600019166000191681526020019250505060206040518083038186803b151561064f57600080fd5b6102c65a03f4151561066057600080fd5b5050506040518051905060019004905092915050565b60008060008473ffffffffffffffffffffffffffffffffffffffff1673ffffffffffffffffffffffffffffffffffffffff16815260200190815260200160002073__GroveLib______________________________63a3119e5790918473ffffffffffffffffffffffffffffffffffffffff166001026000604051602001526040518363ffffffff167c01000000000000000000000000000000000000000000000000000000000281526004018083815260200182600019166000191681526020019250505060206040518083038186803b151561075357600080fd5b6102c65a03f4151561076457600080fd5b50505060405180519050905092915050565b60008060003373ffffffffffffffffffffffffffffffffffffffff1673ffffffffffffffffffffffffffffffffffffffff16815260200190815260200160002073__GroveLib______________________________63ab7366f790918473ffffffffffffffffffffffffffffffffffffffff166001026040518363ffffffff167c01000000000000000000000000000000000000000000000000000000000281526004018083815260200182600019166000191681526020019250505060006040518083038186803b151561084a57600080fd5b6102c65a03f4151561085b57600080fd5b50505060019050919050565b60008060008573ffffffffffffffffffffffffffffffffffffffff1673ffffffffffffffffffffffffffffffffffffffff16815260200190815260200160002073__GroveLib______________________________63e6ce3a6a90918573__MathLib_______________________________6388102583876000604051602001526040518263ffffffff167c01000000000000000000000000000000000000000000000000000000000281526004018082815260200191505060206040518083038186803b151561093757600080fd5b6102c65a03f4151561094857600080fd5b505050604051805190506000604051602001526040518463ffffffff167c010000000000000000000000000000000000000000000000000000000002815260040180848152602001837dffffffffffffffffffffffffffffffffffffffffffffffffffffffffffff19167dffffffffffffffffffffffffffffffffffffffffffffffffffffffffffff19168152602001828152602001935050505060206040518083038186803b15156109fa57600080fd5b6102c65a03f41515610a0b57600080fd5b505050604051805190506001900490509392505050565b60008060008473ffffffffffffffffffffffffffffffffffffffff1673ffffffffffffffffffffffffffffffffffffffff16815260200190815260200160002073__GroveLib______________________________63caa46c9c90918473ffffffffffffffffffffffffffffffffffffffff166001026000604051602001526040518363ffffffff167c01000000000000000000000000000000000000000000000000000000000281526004018083815260200182600019166000191681526020019250505060206040518083038186803b1515610aff57600080fd5b6102c65a03f41515610b1057600080fd5b5050506040518051905060019004905092915050565b60008060008473ffffffffffffffffffffffffffffffffffffffff1673ffffffffffffffffffffffffffffffffffffffff16815260200190815260200160002073__GroveLib______________________________63ed5bd7ea90918473ffffffffffffffffffffffffffffffffffffffff166001026000604051602001526040518363ffffffff167c01000000000000000000000000000000000000000000000000000000000281526004018083815260200182600019166000191681526020019250505060206040518083038186803b1515610c0357600080fd5b6102c65a03f41515610c1457600080fd5b505050604051805190509050929150505600a165627a7a72305820acd33d1b2209b1ce1af70104f39980070f3f40be8f136ce245c7d5b6187d77f70029",
  "source": "pragma solidity ^0.4.19;\n\nimport \"contracts/Interface/RequestTrackerInterface.sol\";\nimport \"contracts/Library/GroveLib.sol\";\nimport \"contracts/Library/MathLib.sol\";\n\n/**\n * @title RequestTracker\n * @dev The API for the GroveLib backend that keeps track of transaction requests.\n */\ncontract RequestTracker is RequestTrackerInterface {\n    using GroveLib for GroveLib.Index;\n\n    mapping (address => GroveLib.Index) requestsByAddress;\n\n    /*\n     * @dev Returns the windowStart value for the given request.\n     */\n    function getWindowStart(address factory, address request)\n        public view returns (uint)\n    {\n        return uint(requestsByAddress[factory].getNodeValue(bytes32(request)));\n    }\n\n    /*\n     * @dev Returns the request which comes directly before the given request.\n     */\n    function getPreviousRequest(address factory, address request)\n        public view returns (address)\n    {\n        return address(requestsByAddress[factory].getPreviousNode(bytes32(request)));\n    }\n\n    /*\n     * @dev Returns the request which comes directly after the given request.\n     */\n    function getNextRequest(address factory, address request)\n        public view returns (address)\n    {\n        return address(requestsByAddress[factory].getNextNode(bytes32(request)));\n    }\n\n    /*\n     * Add the given request.\n     */\n    function addRequest(address request, uint startWindow) \n        public returns (bool)\n    {\n        requestsByAddress[msg.sender].insert(bytes32(request), MathLib.safeCastSigned(startWindow));\n        return true;\n    }\n\n    /*\n     * Remove the given address from the index.\n     */\n    function removeRequest(address request)\n        public returns (bool)\n    {\n        requestsByAddress[msg.sender].remove(bytes32(request));\n        return true;\n    }\n\n    /*\n     * Return boolean as to whether the given address is present for the given\n     * factory.\n     */\n    function isKnownRequest(address factory, address request)\n        public view returns (bool)\n    {\n        return requestsByAddress[factory].exists(bytes32(request));\n    }\n\n    /*\n     * Query the index for the given factory.\n     */\n    function query(address factory, bytes2 operator, uint value)\n        public view returns (address)\n    {\n        return address(requestsByAddress[factory].query(operator, MathLib.safeCastSigned(value)));\n    }\n}",
  "sourcePath": "/home/logan/Work/ethereum-alarm-clock/contracts/RequestTracker.sol",
  "compiler": {
    "name": "solc",
    "version": "0.4.19+commit.c4cbbb05.Emscripten.clang"
  },
  "schemaVersion": "1.0.1",
  "updatedAt": "2018-02-23T01:52:26.689Z"
}