{
  "contractName": "TransactionRequestCore",
  "abi": [
    {
      "payable": true,
      "stateMutability": "payable",
      "type": "fallback"
    },
    {
      "constant": false,
      "inputs": [
        {
          "name": "addressArgs",
          "type": "address[4]"
        },
        {
          "name": "uintArgs",
          "type": "uint256[12]"
        },
        {
          "name": "callData",
          "type": "bytes"
        }
      ],
      "name": "initialize",
      "outputs": [],
      "payable": true,
      "stateMutability": "payable",
      "type": "function"
    },
    {
      "constant": false,
      "inputs": [],
      "name": "execute",
      "outputs": [
        {
          "name": "",
          "type": "bool"
        }
      ],
      "payable": false,
      "stateMutability": "nonpayable",
      "type": "function"
    },
    {
      "constant": false,
      "inputs": [],
      "name": "cancel",
      "outputs": [
        {
          "name": "",
          "type": "bool"
        }
      ],
      "payable": false,
      "stateMutability": "nonpayable",
      "type": "function"
    },
    {
      "constant": false,
      "inputs": [],
      "name": "claim",
      "outputs": [
        {
          "name": "",
          "type": "bool"
        }
      ],
      "payable": true,
      "stateMutability": "payable",
      "type": "function"
    },
    {
      "constant": true,
      "inputs": [],
      "name": "requestData",
      "outputs": [
        {
          "name": "",
          "type": "address[6]"
        },
        {
          "name": "",
          "type": "bool[3]"
        },
        {
          "name": "",
          "type": "uint256[15]"
        },
        {
          "name": "",
          "type": "uint8[1]"
        }
      ],
      "payable": false,
      "stateMutability": "view",
      "type": "function"
    },
    {
      "constant": true,
      "inputs": [],
      "name": "callData",
      "outputs": [
        {
          "name": "data",
          "type": "bytes"
        }
      ],
      "payable": false,
      "stateMutability": "view",
      "type": "function"
    },
    {
      "constant": false,
      "inputs": [
        {
          "name": "_to",
          "type": "address"
        },
        {
          "name": "_data",
          "type": "bytes"
        }
      ],
      "name": "proxy",
      "outputs": [
        {
          "name": "success",
          "type": "bool"
        }
      ],
      "payable": true,
      "stateMutability": "payable",
      "type": "function"
    },
    {
      "constant": false,
      "inputs": [],
      "name": "refundClaimDeposit",
      "outputs": [
        {
          "name": "",
          "type": "bool"
        }
      ],
      "payable": false,
      "stateMutability": "nonpayable",
      "type": "function"
    },
    {
      "constant": false,
      "inputs": [],
      "name": "sendFee",
      "outputs": [
        {
          "name": "",
          "type": "bool"
        }
      ],
      "payable": false,
      "stateMutability": "nonpayable",
      "type": "function"
    },
    {
      "constant": false,
      "inputs": [],
      "name": "sendBounty",
      "outputs": [
        {
          "name": "",
          "type": "bool"
        }
      ],
      "payable": false,
      "stateMutability": "nonpayable",
      "type": "function"
    },
    {
      "constant": false,
      "inputs": [],
      "name": "sendOwnerEther",
      "outputs": [
        {
          "name": "",
          "type": "bool"
        }
      ],
      "payable": false,
      "stateMutability": "nonpayable",
      "type": "function"
    }
  ],
  "bytecode": "0x6060604052341561000f57600080fd5b61216c8061001e6000396000f3006060604052600436106100af576000357c0100000000000000000000000000000000000000000000000000000000900463ffffffff1680634bb89c4d146100b15780634e417a98146100de5780634e71d92d1461016c578063606deecd1461018e578063614619541461026c5780636949a05814610299578063820e8522146102c6578063ae39279f14610371578063b311ee0c1461039e578063be6d055a146103cb578063ea8a1af014610454575b005b34156100bc57600080fd5b6100c4610481565b604051808215151515815260200191505060405180910390f35b34156100e957600080fd5b6100f1610518565b6040518080602001828103825283818151815260200191508051906020019080838360005b83811015610131578082015181840152602081019050610116565b50505050905090810190601f16801561015e5780820380516001836020036101000a031916815260200191505b509250505060405180910390f35b6101746105c5565b604051808215151515815260200191505060405180910390f35b341561019957600080fd5b6101a16105d6565b6040518085600660200280838360005b838110156101cc5780820151818401526020810190506101b1565b5050505090500184600360200280838360005b838110156101fa5780820151818401526020810190506101df565b5050505090500183600f60200280838360005b8381101561022857808201518184015260208101905061020d565b5050505090500182600160200280838360005b8381101561025657808201518184015260208101905061023b565b5050505090500194505050505060405180910390f35b341561027757600080fd5b61027f6107ba565b604051808215151515815260200191505060405180910390f35b34156102a457600080fd5b6102ac6107cb565b604051808215151515815260200191505060405180910390f35b61036f6004808060800190600480602002604051908101604052809291908260046020028082843782019150505050509190806101800190600c806020026040519081016040528092919082600c6020028082843782019150505050509190803590602001908201803590602001908080601f01602080910402602001604051908101604052809392919081815260200183838082843782019150505050505091905050610862565b005b341561037c57600080fd5b6103846109c6565b604051808215151515815260200191505060405180910390f35b34156103a957600080fd5b6103b1610a5d565b604051808215151515815260200191505060405180910390f35b61043a600480803573ffffffffffffffffffffffffffffffffffffffff1690602001909190803590602001908201803590602001908080601f01602080910402602001604051908101604052809392919081815260200183838082843782019150505050505091905050610af3565b604051808215151515815260200191505060405180910390f35b341561045f57600080fd5b610467610c00565b604051808215151515815260200191505060405180910390f35b60008073__RequestLib____________________________63ab3b2e8190916000604051602001526040518263ffffffff167c01000000000000000000000000000000000000000000000000000000000281526004018082815260200191505060206040518083038186803b15156104f857600080fd5b6102c65a03f4151561050957600080fd5b50505060405180519050905090565b610520612070565b600080016001018054600181600116156101000203166002900480601f0160208091040260200160405190810160405280929190818152602001828054600181600116156101000203166002900480156105bb5780601f10610590576101008083540402835291602001916105bb565b820191906000526020600020905b81548152906001019060200180831161059e57829003601f168201915b5050505050905090565b60006105d16000610c97565b905090565b6105de612084565b6105e66120c2565b6105ee6120ec565b6105f6612115565b6106006000610d04565b156107af57600060170160000160006017016006016000601701600701600060170160160183600680602002604051908101604052809291908260068015610693576020028201915b8160009054906101000a900473ffffffffffffffffffffffffffffffffffffffff1673ffffffffffffffffffffffffffffffffffffffff1681526020019060010190808311610649575b50505050509350826003806020026040519081016040528092919082600380156106f7576020028201916000905b82829054906101000a900460ff161515815260200190600101906020826000010492830192600103820291508084116106c15790505b5050505050925081600f806020026040519081016040528092919082600f8015610736576020028201915b815481526020019060010190808311610722575b505050505091508060018060200260405190810160405280929190826001801561079b576020028201916000905b82829054906101000a900460ff1660ff16815260200190600101906020826000010492830192600103820291508084116107645790505b5050505050905093509350935093506107b4565b600080fd5b90919293565b60006107c66000611332565b905090565b60008073__RequestLib____________________________634074b91c90916000604051602001526040518263ffffffff167c01000000000000000000000000000000000000000000000000000000000281526004018082815260200191505060206040518083038186803b151561084257600080fd5b6102c65a03f4151561085357600080fd5b50505060405180519050905090565b600073__RequestLib____________________________638c5bebf290918585856000604051602001526040518563ffffffff167c01000000000000000000000000000000000000000000000000000000000281526004018085815260200184600460200280838360005b838110156108e85780820151818401526020810190506108cd565b5050505090500183600c60200280838360005b838110156109165780820151818401526020810190506108fb565b5050505090500180602001828103825283818151815260200191508051906020019080838360005b8381101561095957808201518184015260208101905061093e565b50505050905090810190601f1680156109865780820380516001836020036101000a031916815260200191505b509550505050505060206040518083038186803b15156109a557600080fd5b6102c65a03f415156109b657600080fd5b5050506040518051905050505050565b60008073__RequestLib____________________________63f925a7d690916000604051602001526040518263ffffffff167c01000000000000000000000000000000000000000000000000000000000281526004018082815260200191505060206040518083038186803b1515610a3d57600080fd5b6102c65a03f41515610a4e57600080fd5b50505060405180519050905090565b60008073__RequestLib____________________________637994549a90916000604051602001526040518263ffffffff167c01000000000000000000000000000000000000000000000000000000000281526004018082815260200191505060206040518083038186803b1515610ad457600080fd5b6102c65a03f41515610ae557600080fd5b505050604051805190505090565b60003373ffffffffffffffffffffffffffffffffffffffff16600060050160000160009054906101000a900473ffffffffffffffffffffffffffffffffffffffff1673ffffffffffffffffffffffffffffffffffffffff16148015610b615750610b606000601101611910565b5b1515610b6c57600080fd5b8273ffffffffffffffffffffffffffffffffffffffff16348360405180828051906020019080838360005b83811015610bb2578082015181840152602081019050610b97565b50505050905090810190601f168015610bdf5780820380516001836020036101000a031916815260200191505b5091505060006040518083038185876187965a03f192505050905092915050565b60008073__RequestLib____________________________6332839d9890916000604051602001526040518263ffffffff167c01000000000000000000000000000000000000000000000000000000000281526004018082815260200191505060206040518083038186803b1515610c7757600080fd5b6102c65a03f41515610c8857600080fd5b50505060405180519050905090565b6000610ca28261192c565b1515610cad57600080fd5b610cce610cbc8360110161199d565b83600d01611a0490919063ffffffff16565b507fbcb472984264b16baa8cde752f2af002ea8ce06f35d81caee36625234edd2a4660405160405180910390a160019050919050565b600081600d0160000160009054906101000a900473ffffffffffffffffffffffffffffffffffffffff16826017016000016000600681101515610d4357fe5b0160006101000a81548173ffffffffffffffffffffffffffffffffffffffff021916908373ffffffffffffffffffffffffffffffffffffffff1602179055508160050160010160009054906101000a900473ffffffffffffffffffffffffffffffffffffffff16826017016000016001600681101515610dbf57fe5b0160006101000a81548173ffffffffffffffffffffffffffffffffffffffff021916908373ffffffffffffffffffffffffffffffffffffffff1602179055508160050160000160009054906101000a900473ffffffffffffffffffffffffffffffffffffffff16826017016000016002600681101515610e3b57fe5b0160006101000a81548173ffffffffffffffffffffffffffffffffffffffff021916908373ffffffffffffffffffffffffffffffffffffffff1602179055508160070160040160009054906101000a900473ffffffffffffffffffffffffffffffffffffffff16826017016000016003600681101515610eb757fe5b0160006101000a81548173ffffffffffffffffffffffffffffffffffffffff021916908373ffffffffffffffffffffffffffffffffffffffff1602179055508160070160010160009054906101000a900473ffffffffffffffffffffffffffffffffffffffff16826017016000016004600681101515610f3357fe5b0160006101000a81548173ffffffffffffffffffffffffffffffffffffffff021916908373ffffffffffffffffffffffffffffffffffffffff1602179055508160000160000160009054906101000a900473ffffffffffffffffffffffffffffffffffffffff16826017016000016005600681101515610faf57fe5b0160006101000a81548173ffffffffffffffffffffffffffffffffffffffff021916908373ffffffffffffffffffffffffffffffffffffffff1602179055508160050160010160149054906101000a900460ff1682601701600601600060038110151561101857fe5b602091828204019190066101000a81548160ff0219169083151502179055508160050160010160159054906101000a900460ff1682601701600601600160038110151561106157fe5b602091828204019190066101000a81548160ff0219169083151502179055508160050160010160169054906101000a900460ff168260170160060160026003811015156110aa57fe5b602091828204019190066101000a81548160ff02191690831515021790555081600d0160010154826017016007016000600f811015156110e657fe5b01819055508160070160030154826017016007016001600f8110151561110857fe5b01819055508160070160050154826017016007016002600f8110151561112a57fe5b01819055508160070160000154826017016007016003600f8110151561114c57fe5b01819055508160070160020154826017016007016004600f8110151561116e57fe5b01819055508160110160050154826017016007016005600f8110151561119057fe5b01819055508160110160030154826017016007016006600f811015156111b257fe5b01819055508160110160040154826017016007016007600f811015156111d457fe5b01819055508160110160000160009054906101000a900460ff1660028111156111f957fe5b826017016007016008600f8110151561120e57fe5b01819055508160110160020154826017016007016009600f8110151561123057fe5b0181905550816011016001015482601701600701600a600f8110151561125257fe5b0181905550816000016003015482601701600701600b600f8110151561127457fe5b0181905550816000016002015482601701600701600c600f8110151561129657fe5b0181905550816000016004015482601701600701600d600f811015156112b857fe5b018190555081600d016002015482601701600701600e600f811015156112da57fe5b018190555081600d0160030160009054906101000a900460ff1682601701601601600060018110151561130957fe5b602091828204019190066101000a81548160ff021916908360ff16021790555060019050919050565b6000806000805a92506113586161a861134a87611a75565b611a9b90919063ffffffff16565b5a10156113b1577fc008bc849b42227c61d5063a1313ce509a6e99211bfd59e827e417be6c65c81b6005600681111561138d57fe5b604051808260ff1660ff16815260200191505060405180910390a160009350611908565b8460050160010160159054906101000a900460ff161561141d577fc008bc849b42227c61d5063a1313ce509a6e99211bfd59e827e417be6c65c81b600160068111156113f957fe5b604051808260ff1660ff16815260200191505060405180910390a160009350611908565b8460050160010160149054906101000a900460ff1615611489577fc008bc849b42227c61d5063a1313ce509a6e99211bfd59e827e417be6c65c81b6000600681111561146557fe5b604051808260ff1660ff16815260200191505060405180910390a160009350611908565b61149585601101611ab7565b156114ec577fc008bc849b42227c61d5063a1313ce509a6e99211bfd59e827e417be6c65c81b600260068111156114c857fe5b604051808260ff1660ff16815260200191505060405180910390a160009350611908565b6114f885601101611910565b1561154f577fc008bc849b42227c61d5063a1313ce509a6e99211bfd59e827e417be6c65c81b6003600681111561152b57fe5b604051808260ff1660ff16815260200191505060405180910390a160009350611908565b61155b85600d01611acf565b80156115ba575084600d0160000160009054906101000a900473ffffffffffffffffffffffffffffffffffffffff1673ffffffffffffffffffffffffffffffffffffffff163373ffffffffffffffffffffffffffffffffffffffff1614155b80156115ce57506115cd85601101611b16565b5b15611625577fc008bc849b42227c61d5063a1313ce509a6e99211bfd59e827e417be6c65c81b6004600681111561160157fe5b604051808260ff1660ff16815260200191505060405180910390a160009350611908565b3a8560000160040154141515611686577fc008bc849b42227c61d5063a1313ce509a6e99211bfd59e827e417be6c65c81b60068081111561166257fe5b604051808260ff1660ff16815260200191505060405180910390a160009350611908565b60018560050160010160156101000a81548160ff0219169083151502179055506116b285600001611b4a565b8560050160010160166101000a81548160ff0219169083151502179055506116dc85600701611c2b565b156117125761170685600701600501546116f887600701611c72565b611c8090919063ffffffff16565b85600701600501819055505b8460070160050154915061172885600701611ca1565b50338560070160010160006101000a81548173ffffffffffffffffffffffffffffffffffffffff021916908373ffffffffffffffffffffffffffffffffffffffff16021790555061177b85600d01611acf565b1561180c576117a1856007016002015486600d0160010154611c8090919063ffffffff16565b8560070160020181905550600085600d01600101819055506117fc85600701600201546117ee87600d0160030160009054906101000a900460ff1688600701611d2990919063ffffffff16565b611c8090919063ffffffff16565b856007016002018190555061183d565b611831856007016002015461182387600701611d64565b611c8090919063ffffffff16565b85600701600201819055505b61186562015f906118575a86611a9b90919063ffffffff16565b611c8090919063ffffffff16565b905061189385600701600201546118853a84611d7290919063ffffffff16565b611c8090919063ffffffff16565b85600701600201819055507f3e504bb8b225ad41f613b0c3c4205cdd752d1615b4d77cd1773417282fcfb5d98560070160020154838360405180848152602001838152602001828152602001935050505060405180910390a16118f885600701611da8565b5061190285611e30565b50600193505b505050919050565b600061191b82611efc565b61192483611f20565b119050919050565b600061193a82600d01611acf565b15151561194657600080fd5b8160050160010160149054906101000a900460ff1615151561196757600080fd5b61197382601101611f43565b151561197e57600080fd5b81600d0160020154341015151561199457600080fd5b60019050919050565b6000806119ec83600501546119de60646119d06119b988611f8c565b6119c289611f20565b611a9b90919063ffffffff16565b611d7290919063ffffffff16565b611fb490919063ffffffff16565b9050606481111515156119fb57fe5b80915050919050565b6000338360000160006101000a81548173ffffffffffffffffffffffffffffffffffffffff021916908373ffffffffffffffffffffffffffffffffffffffff160217905550348360010181905550818360030160006101000a81548160ff021916908360ff16021790555092915050565b6000611a946202bf208360000160030154611c8090919063ffffffff16565b9050919050565b6000828211151515611aac57600080fd5b818303905092915050565b60008160010154611ac783611f20565b109050919050565b6000808260000160009054906101000a900473ffffffffffffffffffffffffffffffffffffffff1673ffffffffffffffffffffffffffffffffffffffff1614159050919050565b6000611b2182611f20565b826001015411158015611b435750611b3882611fcf565b611b4183611f20565b105b9050919050565b60003a8260040154141515611b5e57600080fd5b8160000160009054906101000a900473ffffffffffffffffffffffffffffffffffffffff1673ffffffffffffffffffffffffffffffffffffffff168260020154836003015490846001016040518082805460018160011615610100020316600290048015611c0d5780601f10611be257610100808354040283529160200191611c0d565b820191906000526020600020905b815481529060010190602001808311611bf057829003601f168201915b5050915050600060405180830381858888f193505050509050919050565b6000808260040160009054906101000a900473ffffffffffffffffffffffffffffffffffffffff1673ffffffffffffffffffffffffffffffffffffffff1614159050919050565b600081600301549050919050565b6000808284019050838110151515611c9757600080fd5b8091505092915050565b600080826005015490506000811115611d1e57600083600501819055508260040160009054906101000a900473ffffffffffffffffffffffffffffffffffffffff1673ffffffffffffffffffffffffffffffffffffffff166108fc829081150290604051600060405180830381858888f193505050509150611d23565b600191505b50919050565b6000611d5c6064611d4e8460ff16611d4087611d64565b611d7290919063ffffffff16565b611fb490919063ffffffff16565b905092915050565b600081600001549050919050565b60008082840290506000841480611d935750828482811515611d9057fe5b04145b1515611d9e57600080fd5b8091505092915050565b600080826002015490506000811115611e2557600083600201819055508260010160009054906101000a900473ffffffffffffffffffffffffffffffffffffffff1673ffffffffffffffffffffffffffffffffffffffff166108fc829081150290604051600060405180830381858888f193505050509150611e2a565b600191505b50919050565b600080611e968360070160050154611e888560070160020154611e7a87600d01600101543073ffffffffffffffffffffffffffffffffffffffff1631611a9b90919063ffffffff16565b611a9b90919063ffffffff16565b611a9b90919063ffffffff16565b90508260050160000160009054906101000a900473ffffffffffffffffffffffffffffffffffffffff1673ffffffffffffffffffffffffffffffffffffffff166108fc829081150290604051600060405180830381858888f19350505050915050919050565b6000611f1982600201548360010154611c8090919063ffffffff16565b9050919050565b6000611f3c8260000160009054906101000a900460ff16611ff3565b9050919050565b6000611f4e82611f20565b611f5783611f8c565b11158015611f745750611f698261204c565b611f7283611f20565b105b15611f825760019050611f87565b600090505b919050565b6000611fad8260050154611f9f8461204c565b611a9b90919063ffffffff16565b9050919050565b6000808284811515611fc257fe5b0490508091505092915050565b6000611fec82600401548360010154611c8090919063ffffffff16565b9050919050565b600060028081111561200157fe5b82600281111561200d57fe5b141561201b57429050612047565b6001600281111561202857fe5b82600281111561203457fe5b141561204257439050612047565b600080fd5b919050565b600061206982600301548360010154611a9b90919063ffffffff16565b9050919050565b602060405190810160405280600081525090565b60c0604051908101604052806006905b600073ffffffffffffffffffffffffffffffffffffffff168152602001906001900390816120945790505090565b6060604051908101604052806003905b600015158152602001906001900390816120d25790505090565b6101e060405190810160405280600f905b60008152602001906001900390816120fd5790505090565b6020604051908101604052806001905b600060ff1681526020019060019003908161212557905050905600a165627a7a723058200f3e1398ce37b0f71b0693cb4ea44126ee9d7f9cbe9846fcd218f6daf50de3bd0029",
  "source": "pragma solidity ^0.4.19;\n\nimport \"contracts/Library/RequestLib.sol\";\nimport \"contracts/Library/RequestScheduleLib.sol\";\nimport \"contracts/Interface/TransactionRequestInterface.sol\";\n\ncontract TransactionRequestCore is TransactionRequestInterface {\n    using RequestLib for RequestLib.Request;\n    using RequestScheduleLib for RequestScheduleLib.ExecutionWindow;\n\n    RequestLib.Request txnRequest;\n\n    /*\n     *  addressArgs[0] - meta.createdBy\n     *  addressArgs[1] - meta.owner\n     *  addressArgs[2] - paymentData.feeRecipient\n     *  addressArgs[3] - txnData.toAddress\n     *\n     *  uintArgs[0]  - paymentData.fee\n     *  uintArgs[1]  - paymentData.bounty\n     *  uintArgs[2]  - schedule.claimWindowSize\n     *  uintArgs[3]  - schedule.freezePeriod\n     *  uintArgs[4]  - schedule.reservedWindowSize\n     *  uintArgs[5]  - schedule.temporalUnit\n     *  uintArgs[7]  - schedule.executionWindowSize\n     *  uintArgs[6]  - schedule.windowStart\n     *  uintArgs[8]  - txnData.callGas\n     *  uintArgs[9]  - txnData.callValue\n     *  uintArgs[10] - txnData.gasPrice\n     *  uintArgs[11] - claimData.requiredDeposit\n     */\n    function initialize(\n        address[4]  addressArgs,\n        uint[12]    uintArgs,\n        bytes       callData\n    )\n        public payable\n    {\n        txnRequest.initialize(addressArgs, uintArgs, callData);\n    }\n\n    /*\n     *  Allow receiving ether.  This is needed if there is a large increase in\n     *  network gas prices.\n     */\n    function() public payable {}\n\n    /*\n     *  Actions\n     */\n    function execute() public returns (bool) {\n        return txnRequest.execute();\n    }\n\n    function cancel() public returns (bool) {\n        return txnRequest.cancel();\n    }\n\n    function claim() public payable returns (bool) {\n        return txnRequest.claim();\n    }\n\n    /*\n     *  Data accessor functions.\n     */\n\n    // Declaring this function `view`, although it creates a compiler warning, is\n    // necessary to return values from it.\n    function requestData()\n        public view returns (address[6], bool[3], uint[15], uint8[1])\n    {\n        if (txnRequest.serialize()) {\n            return (\n                txnRequest.serializedValues.addressValues,\n                txnRequest.serializedValues.boolValues,\n                txnRequest.serializedValues.uintValues,\n                txnRequest.serializedValues.uint8Values\n            );\n        } else {\n            revert();\n        }\n    }\n\n    function callData()\n        public view returns (bytes data)\n    {\n        data = txnRequest.txnData.callData;\n    }\n\n    /**\n     * @dev Proxy a call from this contract to another contract.\n     * This function is only callable by the scheduler and can only\n     * be called after the execution window ends. One purpose is to\n     * provide a way to transfer assets held by this contract somewhere else.\n     * For example, if this request was used to buy tokens during an ICO,\n     * it would become the owner of the tokens and this function would need\n     * to be called with the encoded data to the token contract to transfer\n     * the assets somewhere else. */\n    function proxy(address _to, bytes _data)\n        public payable returns (bool success)\n    {\n        require(txnRequest.meta.owner == msg.sender\n                && txnRequest.schedule.isAfterWindow());\n        return _to.call.value(msg.value)(_data);\n    }\n\n    /*\n     *  Pull based payment functions.\n     */\n    function refundClaimDeposit() public returns (bool) {\n        txnRequest.refundClaimDeposit();\n    }\n\n    function sendFee() public returns (bool) {\n        return txnRequest.sendFee();\n    }\n\n    function sendBounty() public returns (bool) {\n        return txnRequest.sendBounty();\n    }\n\n    function sendOwnerEther() public returns (bool) {\n        return txnRequest.sendOwnerEther();\n    }\n}\n",
  "sourcePath": "/home/logan/Work/ethereum-alarm-clock/contracts/TransactionRequestCore.sol",
  "compiler": {
    "name": "solc",
    "version": "0.4.19+commit.c4cbbb05.Emscripten.clang"
  },
  "schemaVersion": "1.0.1",
  "updatedAt": "2018-02-23T01:52:26.682Z"
}